{
  "transactions": [
    {
      "hash": "0x3b705f4c566c086c577b93889ac6fae617139d81f10989fb83dfcb2e88f6ee4b",
      "transactionType": "CREATE",
      "contractName": "WETH",
      "contractAddress": "0xae3d8b867152d7a45eb14107ed9c5c11949cda7a",
      "function": null,
      "arguments": null,
      "transaction": {
        "from": "0xb04ba78b7413c3265ffc1293a4659dea54ef0851",
        "gas": "0x12c20d",
        "value": "0x0",
        "input": "0x608060405234801562000010575f80fd5b506040518060400160405280600d81526020017f57726170706564204574686572000000000000000000000000000000000000008152506040518060400160405280600481526020017f574554480000000000000000000000000000000000000000000000000000000081525081600390816200008e9190620005d7565b508060049081620000a09190620005d7565b505050620000bf3369021e19e0c9bab2400000620000c560201b60201c565b620007e7565b5f73ffffffffffffffffffffffffffffffffffffffff168273ffffffffffffffffffffffffffffffffffffffff160362000138575f6040517fec442f050000000000000000000000000000000000000000000000000000000081526004016200012f9190620006fe565b60405180910390fd5b6200014b5f83836200014f60201b60201c565b5050565b5f73ffffffffffffffffffffffffffffffffffffffff168373ffffffffffffffffffffffffffffffffffffffff1603620001a3578060025f82825462000196919062000746565b9250508190555062000274565b5f805f8573ffffffffffffffffffffffffffffffffffffffff1673ffffffffffffffffffffffffffffffffffffffff1681526020019081526020015f20549050818110156200022f578381836040517fe450d38c000000000000000000000000000000000000000000000000000000008152600401620002269392919062000791565b60405180910390fd5b8181035f808673ffffffffffffffffffffffffffffffffffffffff1673ffffffffffffffffffffffffffffffffffffffff1681526020019081526020015f2081905550505b5f73ffffffffffffffffffffffffffffffffffffffff168273ffffffffffffffffffffffffffffffffffffffff1603620002bd578060025f828254039250508190555062000307565b805f808473ffffffffffffffffffffffffffffffffffffffff1673ffffffffffffffffffffffffffffffffffffffff1681526020019081526020015f205f82825401925050819055505b8173ffffffffffffffffffffffffffffffffffffffff168373ffffffffffffffffffffffffffffffffffffffff167fddf252ad1be2c89b69c2b068fc378daa952ba7f163c4a11628f55a4df523b3ef83604051620003669190620007cc565b60405180910390a3505050565b5f81519050919050565b7f4e487b71000000000000000000000000000000000000000000000000000000005f52604160045260245ffd5b7f4e487b71000000000000000000000000000000000000000000000000000000005f52602260045260245ffd5b5f6002820490506001821680620003ef57607f821691505b602082108103620004055762000404620003aa565b5b50919050565b5f819050815f5260205f209050919050565b5f6020601f8301049050919050565b5f82821b905092915050565b5f60088302620004697fffffffffffffffffffffffffffffffffffffffffffffffffffffffffffffffff826200042c565b6200047586836200042c565b95508019841693508086168417925050509392505050565b5f819050919050565b5f819050919050565b5f620004bf620004b9620004b3846200048d565b62000496565b6200048d565b9050919050565b5f819050919050565b620004da836200049f565b620004f2620004e982620004c6565b84845462000438565b825550505050565b5f90565b62000508620004fa565b62000515818484620004cf565b505050565b5b818110156200053c57620005305f82620004fe565b6001810190506200051b565b5050565b601f8211156200058b5762000555816200040b565b62000560846200041d565b8101602085101562000570578190505b620005886200057f856200041d565b8301826200051a565b50505b505050565b5f82821c905092915050565b5f620005ad5f198460080262000590565b1980831691505092915050565b5f620005c783836200059c565b9150826002028217905092915050565b620005e28262000373565b67ffffffffffffffff811115620005fe57620005fd6200037d565b5b6200060a8254620003d7565b6200061782828562000540565b5f60209050601f8311600181146200064d575f841562000638578287015190505b620006448582620005ba565b865550620006b3565b601f1984166200065d866200040b565b5f5b8281101562000686578489015182556001820191506020850194506020810190506200065f565b86831015620006a65784890151620006a2601f8916826200059c565b8355505b6001600288020188555050505b505050505050565b5f73ffffffffffffffffffffffffffffffffffffffff82169050919050565b5f620006e682620006bb565b9050919050565b620006f881620006da565b82525050565b5f602082019050620007135f830184620006ed565b92915050565b7f4e487b71000000000000000000000000000000000000000000000000000000005f52601160045260245ffd5b5f62000752826200048d565b91506200075f836200048d565b92508282019050808211156200077a576200077962000719565b5b92915050565b6200078b816200048d565b82525050565b5f606082019050620007a65f830186620006ed565b620007b5602083018562000780565b620007c4604083018462000780565b949350505050565b5f602082019050620007e15f83018462000780565b92915050565b610dfc80620007f55f395ff3fe608060405234801561000f575f80fd5b5060043610610091575f3560e01c8063313ce56711610064578063313ce5671461013157806370a082311461014f57806395d89b411461017f578063a9059cbb1461019d578063dd62ed3e146101cd57610091565b806306fdde0314610095578063095ea7b3146100b357806318160ddd146100e357806323b872dd14610101575b5f80fd5b61009d6101fd565b6040516100aa9190610a75565b60405180910390f35b6100cd60048036038101906100c89190610b26565b61028d565b6040516100da9190610b7e565b60405180910390f35b6100eb6102af565b6040516100f89190610ba6565b60405180910390f35b61011b60048036038101906101169190610bbf565b6102b8565b6040516101289190610b7e565b60405180910390f35b6101396102e6565b6040516101469190610c2a565b60405180910390f35b61016960048036038101906101649190610c43565b6102ee565b6040516101769190610ba6565b60405180910390f35b610187610333565b6040516101949190610a75565b60405180910390f35b6101b760048036038101906101b29190610b26565b6103c3565b6040516101c49190610b7e565b60405180910390f35b6101e760048036038101906101e29190610c6e565b6103e5565b6040516101f49190610ba6565b60405180910390f35b60606003805461020c90610cd9565b80601f016020809104026020016040519081016040528092919081815260200182805461023890610cd9565b80156102835780601f1061025a57610100808354040283529160200191610283565b820191905f5260205f20905b81548152906001019060200180831161026657829003601f168201915b5050505050905090565b5f80610297610467565b90506102a481858561046e565b600191505092915050565b5f600254905090565b5f806102c2610467565b90506102cf858285610480565b6102da858585610513565b60019150509392505050565b5f6012905090565b5f805f8373ffffffffffffffffffffffffffffffffffffffff1673ffffffffffffffffffffffffffffffffffffffff1681526020019081526020015f20549050919050565b60606004805461034290610cd9565b80601f016020809104026020016040519081016040528092919081815260200182805461036e90610cd9565b80156103b95780601f10610390576101008083540402835291602001916103b9565b820191905f5260205f20905b81548152906001019060200180831161039c57829003601f168201915b5050505050905090565b5f806103cd610467565b90506103da818585610513565b600191505092915050565b5f60015f8473ffffffffffffffffffffffffffffffffffffffff1673ffffffffffffffffffffffffffffffffffffffff1681526020019081526020015f205f8373ffffffffffffffffffffffffffffffffffffffff1673ffffffffffffffffffffffffffffffffffffffff1681526020019081526020015f2054905092915050565b5f33905090565b61047b8383836001610603565b505050565b5f61048b84846103e5565b90507fffffffffffffffffffffffffffffffffffffffffffffffffffffffffffffffff81101561050d57818110156104fe578281836040517ffb8f41b20000000000000000000000000000000000000000000000000000000081526004016104f593929190610d18565b60405180910390fd5b61050c84848484035f610603565b5b50505050565b5f73ffffffffffffffffffffffffffffffffffffffff168373ffffffffffffffffffffffffffffffffffffffff1603610583575f6040517f96c6fd1e00000000000000000000000000000000000000000000000000000000815260040161057a9190610d4d565b60405180910390fd5b5f73ffffffffffffffffffffffffffffffffffffffff168273ffffffffffffffffffffffffffffffffffffffff16036105f3575f6040517fec442f050000000000000000000000000000000000000000000000000000000081526004016105ea9190610d4d565b60405180910390fd5b6105fe8383836107d2565b505050565b5f73ffffffffffffffffffffffffffffffffffffffff168473ffffffffffffffffffffffffffffffffffffffff1603610673575f6040517fe602df0500000000000000000000000000000000000000000000000000000000815260040161066a9190610d4d565b60405180910390fd5b5f73ffffffffffffffffffffffffffffffffffffffff168373ffffffffffffffffffffffffffffffffffffffff16036106e3575f6040517f94280d620000000000000000000000000000000000000000000000000000000081526004016106da9190610d4d565b60405180910390fd5b8160015f8673ffffffffffffffffffffffffffffffffffffffff1673ffffffffffffffffffffffffffffffffffffffff1681526020019081526020015f205f8573ffffffffffffffffffffffffffffffffffffffff1673ffffffffffffffffffffffffffffffffffffffff1681526020019081526020015f208190555080156107cc578273ffffffffffffffffffffffffffffffffffffffff168473ffffffffffffffffffffffffffffffffffffffff167f8c5be1e5ebec7d5bd14f71427d1e84f3dd0314c0f7b2291e5b200ac8c7c3b925846040516107c39190610ba6565b60405180910390a35b50505050565b5f73ffffffffffffffffffffffffffffffffffffffff168373ffffffffffffffffffffffffffffffffffffffff1603610822578060025f8282546108169190610d93565b925050819055506108f0565b5f805f8573ffffffffffffffffffffffffffffffffffffffff1673ffffffffffffffffffffffffffffffffffffffff1681526020019081526020015f20549050818110156108ab578381836040517fe450d38c0000000000000000000000000000000000000000000000000000000081526004016108a293929190610d18565b60405180910390fd5b8181035f808673ffffffffffffffffffffffffffffffffffffffff1673ffffffffffffffffffffffffffffffffffffffff1681526020019081526020015f2081905550505b5f73ffffffffffffffffffffffffffffffffffffffff168273ffffffffffffffffffffffffffffffffffffffff1603610937578060025f8282540392505081905550610981565b805f808473ffffffffffffffffffffffffffffffffffffffff1673ffffffffffffffffffffffffffffffffffffffff1681526020019081526020015f205f82825401925050819055505b8173ffffffffffffffffffffffffffffffffffffffff168373ffffffffffffffffffffffffffffffffffffffff167fddf252ad1be2c89b69c2b068fc378daa952ba7f163c4a11628f55a4df523b3ef836040516109de9190610ba6565b60405180910390a3505050565b5f81519050919050565b5f82825260208201905092915050565b5f5b83811015610a22578082015181840152602081019050610a07565b5f8484015250505050565b5f601f19601f8301169050919050565b5f610a47826109eb565b610a5181856109f5565b9350610a61818560208601610a05565b610a6a81610a2d565b840191505092915050565b5f6020820190508181035f830152610a8d8184610a3d565b905092915050565b5f80fd5b5f73ffffffffffffffffffffffffffffffffffffffff82169050919050565b5f610ac282610a99565b9050919050565b610ad281610ab8565b8114610adc575f80fd5b50565b5f81359050610aed81610ac9565b92915050565b5f819050919050565b610b0581610af3565b8114610b0f575f80fd5b50565b5f81359050610b2081610afc565b92915050565b5f8060408385031215610b3c57610b3b610a95565b5b5f610b4985828601610adf565b9250506020610b5a85828601610b12565b9150509250929050565b5f8115159050919050565b610b7881610b64565b82525050565b5f602082019050610b915f830184610b6f565b92915050565b610ba081610af3565b82525050565b5f602082019050610bb95f830184610b97565b92915050565b5f805f60608486031215610bd657610bd5610a95565b5b5f610be386828701610adf565b9350506020610bf486828701610adf565b9250506040610c0586828701610b12565b9150509250925092565b5f60ff82169050919050565b610c2481610c0f565b82525050565b5f602082019050610c3d5f830184610c1b565b92915050565b5f60208284031215610c5857610c57610a95565b5b5f610c6584828501610adf565b91505092915050565b5f8060408385031215610c8457610c83610a95565b5b5f610c9185828601610adf565b9250506020610ca285828601610adf565b9150509250929050565b7f4e487b71000000000000000000000000000000000000000000000000000000005f52602260045260245ffd5b5f6002820490506001821680610cf057607f821691505b602082108103610d0357610d02610cac565b5b50919050565b610d1281610ab8565b82525050565b5f606082019050610d2b5f830186610d09565b610d386020830185610b97565b610d456040830184610b97565b949350505050565b5f602082019050610d605f830184610d09565b92915050565b7f4e487b71000000000000000000000000000000000000000000000000000000005f52601160045260245ffd5b5f610d9d82610af3565b9150610da883610af3565b9250828201905080821115610dc057610dbf610d66565b5b9291505056fea2646970667358221220d0a8462666e0bef0f30901bb08473a881326bb74333eb88a88177712b885ad1264736f6c63430008140033",
        "nonce": "0x22c",
        "chainId": "0xaa36a7"
      },
      "additionalContracts": [],
      "isFixedGasLimit": false
    },
    {
      "hash": "0x8146c966346d1b123cdebb1b925a6e7a3284bed69959ab486804eff520039079",
      "transactionType": "CREATE",
      "contractName": "MockDAI",
      "contractAddress": "0x6ed605a8f7a24da52b367c8a4861b4265403f537",
      "function": null,
      "arguments": null,
      "transaction": {
        "from": "0xb04ba78b7413c3265ffc1293a4659dea54ef0851",
        "gas": "0x1385a3",
        "value": "0x0",
        "input": "0x608060405234801562000010575f80fd5b506040518060400160405280600781526020017f4d6f636b444149000000000000000000000000000000000000000000000000008152506040518060400160405280600381526020017f444149000000000000000000000000000000000000000000000000000000000081525081600390816200008e9190620005d8565b508060049081620000a09190620005d8565b505050620000c0336a03a3bc7a5ab8e25e000000620000c660201b60201c565b620007e8565b5f73ffffffffffffffffffffffffffffffffffffffff168273ffffffffffffffffffffffffffffffffffffffff160362000139575f6040517fec442f05000000000000000000000000000000000000000000000000000000008152600401620001309190620006ff565b60405180910390fd5b6200014c5f83836200015060201b60201c565b5050565b5f73ffffffffffffffffffffffffffffffffffffffff168373ffffffffffffffffffffffffffffffffffffffff1603620001a4578060025f82825462000197919062000747565b9250508190555062000275565b5f805f8573ffffffffffffffffffffffffffffffffffffffff1673ffffffffffffffffffffffffffffffffffffffff1681526020019081526020015f205490508181101562000230578381836040517fe450d38c000000000000000000000000000000000000000000000000000000008152600401620002279392919062000792565b60405180910390fd5b8181035f808673ffffffffffffffffffffffffffffffffffffffff1673ffffffffffffffffffffffffffffffffffffffff1681526020019081526020015f2081905550505b5f73ffffffffffffffffffffffffffffffffffffffff168273ffffffffffffffffffffffffffffffffffffffff1603620002be578060025f828254039250508190555062000308565b805f808473ffffffffffffffffffffffffffffffffffffffff1673ffffffffffffffffffffffffffffffffffffffff1681526020019081526020015f205f82825401925050819055505b8173ffffffffffffffffffffffffffffffffffffffff168373ffffffffffffffffffffffffffffffffffffffff167fddf252ad1be2c89b69c2b068fc378daa952ba7f163c4a11628f55a4df523b3ef83604051620003679190620007cd565b60405180910390a3505050565b5f81519050919050565b7f4e487b71000000000000000000000000000000000000000000000000000000005f52604160045260245ffd5b7f4e487b71000000000000000000000000000000000000000000000000000000005f52602260045260245ffd5b5f6002820490506001821680620003f057607f821691505b602082108103620004065762000405620003ab565b5b50919050565b5f819050815f5260205f209050919050565b5f6020601f8301049050919050565b5f82821b905092915050565b5f600883026200046a7fffffffffffffffffffffffffffffffffffffffffffffffffffffffffffffffff826200042d565b6200047686836200042d565b95508019841693508086168417925050509392505050565b5f819050919050565b5f819050919050565b5f620004c0620004ba620004b4846200048e565b62000497565b6200048e565b9050919050565b5f819050919050565b620004db83620004a0565b620004f3620004ea82620004c7565b84845462000439565b825550505050565b5f90565b62000509620004fb565b62000516818484620004d0565b505050565b5b818110156200053d57620005315f82620004ff565b6001810190506200051c565b5050565b601f8211156200058c5762000556816200040c565b62000561846200041e565b8101602085101562000571578190505b6200058962000580856200041e565b8301826200051b565b50505b505050565b5f82821c905092915050565b5f620005ae5f198460080262000591565b1980831691505092915050565b5f620005c883836200059d565b9150826002028217905092915050565b620005e38262000374565b67ffffffffffffffff811115620005ff57620005fe6200037e565b5b6200060b8254620003d8565b6200061882828562000541565b5f60209050601f8311600181146200064e575f841562000639578287015190505b620006458582620005bb565b865550620006b4565b601f1984166200065e866200040c565b5f5b82811015620006875784890151825560018201915060208501945060208101905062000660565b86831015620006a75784890151620006a3601f8916826200059d565b8355505b6001600288020188555050505b505050505050565b5f73ffffffffffffffffffffffffffffffffffffffff82169050919050565b5f620006e782620006bc565b9050919050565b620006f981620006db565b82525050565b5f602082019050620007145f830184620006ee565b92915050565b7f4e487b71000000000000000000000000000000000000000000000000000000005f52601160045260245ffd5b5f62000753826200048e565b915062000760836200048e565b92508282019050808211156200077b576200077a6200071a565b5b92915050565b6200078c816200048e565b82525050565b5f606082019050620007a75f830186620006ee565b620007b6602083018562000781565b620007c5604083018462000781565b949350505050565b5f602082019050620007e25f83018462000781565b92915050565b610eb080620007f65f395ff3fe608060405234801561000f575f80fd5b506004361061009c575f3560e01c806340c10f191161006457806340c10f191461015a57806370a082311461017657806395d89b41146101a6578063a9059cbb146101c4578063dd62ed3e146101f45761009c565b806306fdde03146100a0578063095ea7b3146100be57806318160ddd146100ee57806323b872dd1461010c578063313ce5671461013c575b5f80fd5b6100a8610224565b6040516100b59190610b29565b60405180910390f35b6100d860048036038101906100d39190610bda565b6102b4565b6040516100e59190610c32565b60405180910390f35b6100f66102d6565b6040516101039190610c5a565b60405180910390f35b61012660048036038101906101219190610c73565b6102df565b6040516101339190610c32565b60405180910390f35b61014461030d565b6040516101519190610cde565b60405180910390f35b610174600480360381019061016f9190610bda565b610315565b005b610190600480360381019061018b9190610cf7565b610323565b60405161019d9190610c5a565b60405180910390f35b6101ae610368565b6040516101bb9190610b29565b60405180910390f35b6101de60048036038101906101d99190610bda565b6103f8565b6040516101eb9190610c32565b60405180910390f35b61020e60048036038101906102099190610d22565b61041a565b60405161021b9190610c5a565b60405180910390f35b60606003805461023390610d8d565b80601f016020809104026020016040519081016040528092919081815260200182805461025f90610d8d565b80156102aa5780601f10610281576101008083540402835291602001916102aa565b820191905f5260205f20905b81548152906001019060200180831161028d57829003601f168201915b5050505050905090565b5f806102be61049c565b90506102cb8185856104a3565b600191505092915050565b5f600254905090565b5f806102e961049c565b90506102f68582856104b5565b610301858585610548565b60019150509392505050565b5f6012905090565b61031f8282610638565b5050565b5f805f8373ffffffffffffffffffffffffffffffffffffffff1673ffffffffffffffffffffffffffffffffffffffff1681526020019081526020015f20549050919050565b60606004805461037790610d8d565b80601f01602080910402602001604051908101604052809291908181526020018280546103a390610d8d565b80156103ee5780601f106103c5576101008083540402835291602001916103ee565b820191905f5260205f20905b8154815290600101906020018083116103d157829003601f168201915b5050505050905090565b5f8061040261049c565b905061040f818585610548565b600191505092915050565b5f60015f8473ffffffffffffffffffffffffffffffffffffffff1673ffffffffffffffffffffffffffffffffffffffff1681526020019081526020015f205f8373ffffffffffffffffffffffffffffffffffffffff1673ffffffffffffffffffffffffffffffffffffffff1681526020019081526020015f2054905092915050565b5f33905090565b6104b083838360016106b7565b505050565b5f6104c0848461041a565b90507fffffffffffffffffffffffffffffffffffffffffffffffffffffffffffffffff8110156105425781811015610533578281836040517ffb8f41b200000000000000000000000000000000000000000000000000000000815260040161052a93929190610dcc565b60405180910390fd5b61054184848484035f6106b7565b5b50505050565b5f73ffffffffffffffffffffffffffffffffffffffff168373ffffffffffffffffffffffffffffffffffffffff16036105b8575f6040517f96c6fd1e0000000000000000000000000000000000000000000000000000000081526004016105af9190610e01565b60405180910390fd5b5f73ffffffffffffffffffffffffffffffffffffffff168273ffffffffffffffffffffffffffffffffffffffff1603610628575f6040517fec442f0500000000000000000000000000000000000000000000000000000000815260040161061f9190610e01565b60405180910390fd5b610633838383610886565b505050565b5f73ffffffffffffffffffffffffffffffffffffffff168273ffffffffffffffffffffffffffffffffffffffff16036106a8575f6040517fec442f0500000000000000000000000000000000000000000000000000000000815260040161069f9190610e01565b60405180910390fd5b6106b35f8383610886565b5050565b5f73ffffffffffffffffffffffffffffffffffffffff168473ffffffffffffffffffffffffffffffffffffffff1603610727575f6040517fe602df0500000000000000000000000000000000000000000000000000000000815260040161071e9190610e01565b60405180910390fd5b5f73ffffffffffffffffffffffffffffffffffffffff168373ffffffffffffffffffffffffffffffffffffffff1603610797575f6040517f94280d6200000000000000000000000000000000000000000000000000000000815260040161078e9190610e01565b60405180910390fd5b8160015f8673ffffffffffffffffffffffffffffffffffffffff1673ffffffffffffffffffffffffffffffffffffffff1681526020019081526020015f205f8573ffffffffffffffffffffffffffffffffffffffff1673ffffffffffffffffffffffffffffffffffffffff1681526020019081526020015f20819055508015610880578273ffffffffffffffffffffffffffffffffffffffff168473ffffffffffffffffffffffffffffffffffffffff167f8c5be1e5ebec7d5bd14f71427d1e84f3dd0314c0f7b2291e5b200ac8c7c3b925846040516108779190610c5a565b60405180910390a35b50505050565b5f73ffffffffffffffffffffffffffffffffffffffff168373ffffffffffffffffffffffffffffffffffffffff16036108d6578060025f8282546108ca9190610e47565b925050819055506109a4565b5f805f8573ffffffffffffffffffffffffffffffffffffffff1673ffffffffffffffffffffffffffffffffffffffff1681526020019081526020015f205490508181101561095f578381836040517fe450d38c00000000000000000000000000000000000000000000000000000000815260040161095693929190610dcc565b60405180910390fd5b8181035f808673ffffffffffffffffffffffffffffffffffffffff1673ffffffffffffffffffffffffffffffffffffffff1681526020019081526020015f2081905550505b5f73ffffffffffffffffffffffffffffffffffffffff168273ffffffffffffffffffffffffffffffffffffffff16036109eb578060025f8282540392505081905550610a35565b805f808473ffffffffffffffffffffffffffffffffffffffff1673ffffffffffffffffffffffffffffffffffffffff1681526020019081526020015f205f82825401925050819055505b8173ffffffffffffffffffffffffffffffffffffffff168373ffffffffffffffffffffffffffffffffffffffff167fddf252ad1be2c89b69c2b068fc378daa952ba7f163c4a11628f55a4df523b3ef83604051610a929190610c5a565b60405180910390a3505050565b5f81519050919050565b5f82825260208201905092915050565b5f5b83811015610ad6578082015181840152602081019050610abb565b5f8484015250505050565b5f601f19601f8301169050919050565b5f610afb82610a9f565b610b058185610aa9565b9350610b15818560208601610ab9565b610b1e81610ae1565b840191505092915050565b5f6020820190508181035f830152610b418184610af1565b905092915050565b5f80fd5b5f73ffffffffffffffffffffffffffffffffffffffff82169050919050565b5f610b7682610b4d565b9050919050565b610b8681610b6c565b8114610b90575f80fd5b50565b5f81359050610ba181610b7d565b92915050565b5f819050919050565b610bb981610ba7565b8114610bc3575f80fd5b50565b5f81359050610bd481610bb0565b92915050565b5f8060408385031215610bf057610bef610b49565b5b5f610bfd85828601610b93565b9250506020610c0e85828601610bc6565b9150509250929050565b5f8115159050919050565b610c2c81610c18565b82525050565b5f602082019050610c455f830184610c23565b92915050565b610c5481610ba7565b82525050565b5f602082019050610c6d5f830184610c4b565b92915050565b5f805f60608486031215610c8a57610c89610b49565b5b5f610c9786828701610b93565b9350506020610ca886828701610b93565b9250506040610cb986828701610bc6565b9150509250925092565b5f60ff82169050919050565b610cd881610cc3565b82525050565b5f602082019050610cf15f830184610ccf565b92915050565b5f60208284031215610d0c57610d0b610b49565b5b5f610d1984828501610b93565b91505092915050565b5f8060408385031215610d3857610d37610b49565b5b5f610d4585828601610b93565b9250506020610d5685828601610b93565b9150509250929050565b7f4e487b71000000000000000000000000000000000000000000000000000000005f52602260045260245ffd5b5f6002820490506001821680610da457607f821691505b602082108103610db757610db6610d60565b5b50919050565b610dc681610b6c565b82525050565b5f606082019050610ddf5f830186610dbd565b610dec6020830185610c4b565b610df96040830184610c4b565b949350505050565b5f602082019050610e145f830184610dbd565b92915050565b7f4e487b71000000000000000000000000000000000000000000000000000000005f52601160045260245ffd5b5f610e5182610ba7565b9150610e5c83610ba7565b9250828201905080821115610e7457610e73610e1a565b5b9291505056fea2646970667358221220172fb2db76018ec426f1f0c15d4780d40aedc6bb43d0fff9d7070ad0efac970f64736f6c63430008140033",
        "nonce": "0x22d",
        "chainId": "0xaa36a7"
      },
      "additionalContracts": [],
      "isFixedGasLimit": false
    },
    {
      "hash": "0x5616ac458ed4f2adea666fffe9fe71a365468f0a2c8d0ef4bb6bb9e57b2e8a8c",
      "transactionType": "CREATE",
      "contractName": "UniswapV2Factory",
      "contractAddress": "0xfec728461f2f7c6ab4ebe6993de92b3cfc561be3",
      "function": null,
      "arguments": null,
      "transaction": {
        "from": "0xb04ba78b7413c3265ffc1293a4659dea54ef0851",
        "gas": "0x7fd5e",
        "value": "0x0",
        "input": "0x608060405234801561000f575f80fd5b506106528061001d5f395ff3fe608060405234801561000f575f80fd5b5060043610610034575f3560e01c8063c9c6539614610038578063e6a4390514610068575b5f80fd5b610052600480360381019061004d91906102e5565b610098565b60405161005f9190610332565b60405180910390f35b610082600480360381019061007d91906102e5565b61023e565b60405161008f9190610332565b60405180910390f35b5f82826040516100a79061027a565b6100b292919061034b565b604051809103905ff0801580156100cb573d5f803e3d5ffd5b509050805f808573ffffffffffffffffffffffffffffffffffffffff1673ffffffffffffffffffffffffffffffffffffffff1681526020019081526020015f205f8473ffffffffffffffffffffffffffffffffffffffff1673ffffffffffffffffffffffffffffffffffffffff1681526020019081526020015f205f6101000a81548173ffffffffffffffffffffffffffffffffffffffff021916908373ffffffffffffffffffffffffffffffffffffffff160217905550805f808473ffffffffffffffffffffffffffffffffffffffff1673ffffffffffffffffffffffffffffffffffffffff1681526020019081526020015f205f8573ffffffffffffffffffffffffffffffffffffffff1673ffffffffffffffffffffffffffffffffffffffff1681526020019081526020015f205f6101000a81548173ffffffffffffffffffffffffffffffffffffffff021916908373ffffffffffffffffffffffffffffffffffffffff16021790555092915050565b5f602052815f5260405f20602052805f5260405f205f915091509054906101000a900473ffffffffffffffffffffffffffffffffffffffff1681565b6102aa8061037383390190565b5f80fd5b5f73ffffffffffffffffffffffffffffffffffffffff82169050919050565b5f6102b48261028b565b9050919050565b6102c4816102aa565b81146102ce575f80fd5b50565b5f813590506102df816102bb565b92915050565b5f80604083850312156102fb576102fa610287565b5b5f610308858286016102d1565b9250506020610319858286016102d1565b9150509250929050565b61032c816102aa565b82525050565b5f6020820190506103455f830184610323565b92915050565b5f60408201905061035e5f830185610323565b61036b6020830184610323565b939250505056fe608060405234801561000f575f80fd5b506040516102aa3803806102aa83398181016040528101906100319190610115565b815f806101000a81548173ffffffffffffffffffffffffffffffffffffffff021916908373ffffffffffffffffffffffffffffffffffffffff1602179055508060015f6101000a81548173ffffffffffffffffffffffffffffffffffffffff021916908373ffffffffffffffffffffffffffffffffffffffff1602179055505050610153565b5f80fd5b5f73ffffffffffffffffffffffffffffffffffffffff82169050919050565b5f6100e4826100bb565b9050919050565b6100f4816100da565b81146100fe575f80fd5b50565b5f8151905061010f816100eb565b92915050565b5f806040838503121561012b5761012a6100b7565b5b5f61013885828601610101565b925050602061014985828601610101565b9150509250929050565b61014a806101605f395ff3fe608060405234801561000f575f80fd5b5060043610610034575f3560e01c80630dfe168114610038578063d21220a714610056575b5f80fd5b610040610074565b60405161004d91906100fb565b60405180910390f35b61005e610097565b60405161006b91906100fb565b60405180910390f35b5f8054906101000a900473ffffffffffffffffffffffffffffffffffffffff1681565b60015f9054906101000a900473ffffffffffffffffffffffffffffffffffffffff1681565b5f73ffffffffffffffffffffffffffffffffffffffff82169050919050565b5f6100e5826100bc565b9050919050565b6100f5816100db565b82525050565b5f60208201905061010e5f8301846100ec565b9291505056fea2646970667358221220156ead65999b089e95a02908047c7b94da530268f8dee7705bf11313c41d09a064736f6c63430008140033a26469706673582212209af6471f8fc891e068972cd37d323e5bdeda33fb6b4c1959f3fd6dd54b250c4c64736f6c63430008140033",
        "nonce": "0x22e",
        "chainId": "0xaa36a7"
      },
      "additionalContracts": [],
      "isFixedGasLimit": false
    },
    {
      "hash": "0x519591510aede89cc324aad85b786f78c0e059b12ae16fb18d95f925bbf743a9",
      "transactionType": "CREATE",
      "contractName": "UniswapV2Factory",
      "contractAddress": "0x3a3cb1f64887b030cf574134a8e77966d223502f",
      "function": null,
      "arguments": null,
      "transaction": {
        "from": "0xb04ba78b7413c3265ffc1293a4659dea54ef0851",
        "gas": "0x7fd5e",
        "value": "0x0",
        "input": "0x608060405234801561000f575f80fd5b506106528061001d5f395ff3fe608060405234801561000f575f80fd5b5060043610610034575f3560e01c8063c9c6539614610038578063e6a4390514610068575b5f80fd5b610052600480360381019061004d91906102e5565b610098565b60405161005f9190610332565b60405180910390f35b610082600480360381019061007d91906102e5565b61023e565b60405161008f9190610332565b60405180910390f35b5f82826040516100a79061027a565b6100b292919061034b565b604051809103905ff0801580156100cb573d5f803e3d5ffd5b509050805f808573ffffffffffffffffffffffffffffffffffffffff1673ffffffffffffffffffffffffffffffffffffffff1681526020019081526020015f205f8473ffffffffffffffffffffffffffffffffffffffff1673ffffffffffffffffffffffffffffffffffffffff1681526020019081526020015f205f6101000a81548173ffffffffffffffffffffffffffffffffffffffff021916908373ffffffffffffffffffffffffffffffffffffffff160217905550805f808473ffffffffffffffffffffffffffffffffffffffff1673ffffffffffffffffffffffffffffffffffffffff1681526020019081526020015f205f8573ffffffffffffffffffffffffffffffffffffffff1673ffffffffffffffffffffffffffffffffffffffff1681526020019081526020015f205f6101000a81548173ffffffffffffffffffffffffffffffffffffffff021916908373ffffffffffffffffffffffffffffffffffffffff16021790555092915050565b5f602052815f5260405f20602052805f5260405f205f915091509054906101000a900473ffffffffffffffffffffffffffffffffffffffff1681565b6102aa8061037383390190565b5f80fd5b5f73ffffffffffffffffffffffffffffffffffffffff82169050919050565b5f6102b48261028b565b9050919050565b6102c4816102aa565b81146102ce575f80fd5b50565b5f813590506102df816102bb565b92915050565b5f80604083850312156102fb576102fa610287565b5b5f610308858286016102d1565b9250506020610319858286016102d1565b9150509250929050565b61032c816102aa565b82525050565b5f6020820190506103455f830184610323565b92915050565b5f60408201905061035e5f830185610323565b61036b6020830184610323565b939250505056fe608060405234801561000f575f80fd5b506040516102aa3803806102aa83398181016040528101906100319190610115565b815f806101000a81548173ffffffffffffffffffffffffffffffffffffffff021916908373ffffffffffffffffffffffffffffffffffffffff1602179055508060015f6101000a81548173ffffffffffffffffffffffffffffffffffffffff021916908373ffffffffffffffffffffffffffffffffffffffff1602179055505050610153565b5f80fd5b5f73ffffffffffffffffffffffffffffffffffffffff82169050919050565b5f6100e4826100bb565b9050919050565b6100f4816100da565b81146100fe575f80fd5b50565b5f8151905061010f816100eb565b92915050565b5f806040838503121561012b5761012a6100b7565b5b5f61013885828601610101565b925050602061014985828601610101565b9150509250929050565b61014a806101605f395ff3fe608060405234801561000f575f80fd5b5060043610610034575f3560e01c80630dfe168114610038578063d21220a714610056575b5f80fd5b610040610074565b60405161004d91906100fb565b60405180910390f35b61005e610097565b60405161006b91906100fb565b60405180910390f35b5f8054906101000a900473ffffffffffffffffffffffffffffffffffffffff1681565b60015f9054906101000a900473ffffffffffffffffffffffffffffffffffffffff1681565b5f73ffffffffffffffffffffffffffffffffffffffff82169050919050565b5f6100e5826100bc565b9050919050565b6100f5816100db565b82525050565b5f60208201905061010e5f8301846100ec565b9291505056fea2646970667358221220156ead65999b089e95a02908047c7b94da530268f8dee7705bf11313c41d09a064736f6c63430008140033a26469706673582212209af6471f8fc891e068972cd37d323e5bdeda33fb6b4c1959f3fd6dd54b250c4c64736f6c63430008140033",
        "nonce": "0x22f",
        "chainId": "0xaa36a7"
      },
      "additionalContracts": [],
      "isFixedGasLimit": false
    },
    {
      "hash": "0xd27d11bb9ab4937fa52034db40667f3a65c2fb96f5aef99bb095ac69438a751c",
      "transactionType": "CREATE",
      "contractName": "MockUniswapV2Router",
      "contractAddress": "0x840a7f872d2f585f71bf4859037981ca90fb174f",
      "function": null,
      "arguments": [
        "0xFec728461f2f7C6Ab4EBE6993de92b3cfC561BE3"
      ],
      "transaction": {
        "from": "0xb04ba78b7413c3265ffc1293a4659dea54ef0851",
        "gas": "0x18324f",
        "value": "0x0",
        "input": "0x608060405234801562000010575f80fd5b50604051620015d7380380620015d78339818101604052810190620000369190620000e1565b805f806101000a81548173ffffffffffffffffffffffffffffffffffffffff021916908373ffffffffffffffffffffffffffffffffffffffff1602179055505062000111565b5f80fd5b5f73ffffffffffffffffffffffffffffffffffffffff82169050919050565b5f620000ab8262000080565b9050919050565b620000bd816200009f565b8114620000c8575f80fd5b50565b5f81519050620000db81620000b2565b92915050565b5f60208284031215620000f957620000f86200007c565b5b5f6200010884828501620000cb565b91505092915050565b6114b8806200011f5f395ff3fe608060405234801561000f575f80fd5b5060043610610060575f3560e01c806338ed17391461006457806391b7f5ed14610094578063a035b1fe146100b0578063c45a0155146100ce578063d06ca61f146100ec578063e8e337001461011c575b5f80fd5b61007e6004803603810190610079919061094b565b61014e565b60405161008b9190610a98565b60405180910390f35b6100ae60048036038101906100a99190610ab8565b61051a565b005b6100b8610524565b6040516100c59190610af2565b60405180910390f35b6100d661052a565b6040516100e39190610b1a565b60405180910390f35b61010660048036038101906101019190610c7b565b61054d565b6040516101139190610a98565b60405180910390f35b61013660048036038101906101319190610cd5565b610602565b60405161014593929190610d86565b60405180910390f35b606081421115610193576040517f08c379a000000000000000000000000000000000000000000000000000000000815260040161018a90610e15565b60405180910390fd5b600285859050146101d9576040517f08c379a00000000000000000000000000000000000000000000000000000000081526004016101d090610ea3565b60405180910390fd5b5f871161021b576040517f08c379a000000000000000000000000000000000000000000000000000000000815260040161021290610f31565b60405180910390fd5b5f85855f81811061022f5761022e610f4f565b5b90506020020160208101906102449190610f7c565b90505f8686600181811061025b5761025a610f4f565b5b90506020020160208101906102709190610f7c565b90508173ffffffffffffffffffffffffffffffffffffffff166323b872dd33308c6040518463ffffffff1660e01b81526004016102af93929190610fa7565b6020604051808303815f875af11580156102cb573d5f803e3d5ffd5b505050506040513d601f19601f820116820180604052508101906102ef9190611011565b61032e576040517f08c379a0000000000000000000000000000000000000000000000000000000008152600401610325906110ac565b60405180910390fd5b600267ffffffffffffffff81111561034957610348610b43565b5b6040519080825280602002602001820160405280156103775781602001602082028036833780820191505090505b50925088835f8151811061038e5761038d610f4f565b5b602002602001018181525050670de0b6b3a76400006001548a6103b191906110f7565b6103bb9190611165565b836001815181106103cf576103ce610f4f565b5b60200260200101818152505087836001815181106103f0576103ef610f4f565b5b60200260200101511015610439576040517f08c379a000000000000000000000000000000000000000000000000000000000815260040161043090611205565b60405180910390fd5b8073ffffffffffffffffffffffffffffffffffffffff1663a9059cbb868560018151811061046a57610469610f4f565b5b60200260200101516040518363ffffffff1660e01b815260040161048f929190611223565b6020604051808303815f875af11580156104ab573d5f803e3d5ffd5b505050506040513d601f19601f820116820180604052508101906104cf9190611011565b61050e576040517f08c379a0000000000000000000000000000000000000000000000000000000008152600401610505906112ba565b60405180910390fd5b50509695505050505050565b8060018190555050565b60015481565b5f8054906101000a900473ffffffffffffffffffffffffffffffffffffffff1681565b6060600267ffffffffffffffff81111561056a57610569610b43565b5b6040519080825280602002602001820160405280156105985781602001602082028036833780820191505090505b50905082815f815181106105af576105ae610f4f565b5b602002602001018181525050670de0b6b3a7640000600154846105d291906110f7565b6105dc9190611165565b816001815181106105f0576105ef610f4f565b5b60200260200101818152505092915050565b5f805f83421115610648576040517f08c379a000000000000000000000000000000000000000000000000000000000815260040161063f90610e15565b60405180910390fd5b5f8911801561065657505f88115b610695576040517f08c379a000000000000000000000000000000000000000000000000000000000815260040161068c90611348565b60405180910390fd5b5f8b90505f8b90508173ffffffffffffffffffffffffffffffffffffffff166323b872dd33308e6040518463ffffffff1660e01b81526004016106da93929190610fa7565b6020604051808303815f875af11580156106f6573d5f803e3d5ffd5b505050506040513d601f19601f8201168201806040525081019061071a9190611011565b610759576040517f08c379a0000000000000000000000000000000000000000000000000000000008152600401610750906113d6565b60405180910390fd5b8073ffffffffffffffffffffffffffffffffffffffff166323b872dd33308d6040518463ffffffff1660e01b815260040161079693929190610fa7565b6020604051808303815f875af11580156107b2573d5f803e3d5ffd5b505050506040513d601f19601f820116820180604052508101906107d69190611011565b610815576040517f08c379a000000000000000000000000000000000000000000000000000000000815260040161080c90611464565b60405180910390fd5b8a9450899350670de0b6b3a7640000848661083091906110f7565b61083a9190611165565b92505050985098509895505050505050565b5f604051905090565b5f80fd5b5f80fd5b5f819050919050565b61086f8161085d565b8114610879575f80fd5b50565b5f8135905061088a81610866565b92915050565b5f80fd5b5f80fd5b5f80fd5b5f8083601f8401126108b1576108b0610890565b5b8235905067ffffffffffffffff8111156108ce576108cd610894565b5b6020830191508360208202830111156108ea576108e9610898565b5b9250929050565b5f73ffffffffffffffffffffffffffffffffffffffff82169050919050565b5f61091a826108f1565b9050919050565b61092a81610910565b8114610934575f80fd5b50565b5f8135905061094581610921565b92915050565b5f805f805f8060a0878903121561096557610964610855565b5b5f61097289828a0161087c565b965050602061098389828a0161087c565b955050604087013567ffffffffffffffff8111156109a4576109a3610859565b5b6109b089828a0161089c565b945094505060606109c389828a01610937565b92505060806109d489828a0161087c565b9150509295509295509295565b5f81519050919050565b5f82825260208201905092915050565b5f819050602082019050919050565b610a138161085d565b82525050565b5f610a248383610a0a565b60208301905092915050565b5f602082019050919050565b5f610a46826109e1565b610a5081856109eb565b9350610a5b836109fb565b805f5b83811015610a8b578151610a728882610a19565b9750610a7d83610a30565b925050600181019050610a5e565b5085935050505092915050565b5f6020820190508181035f830152610ab08184610a3c565b905092915050565b5f60208284031215610acd57610acc610855565b5b5f610ada8482850161087c565b91505092915050565b610aec8161085d565b82525050565b5f602082019050610b055f830184610ae3565b92915050565b610b1481610910565b82525050565b5f602082019050610b2d5f830184610b0b565b92915050565b5f601f19601f8301169050919050565b7f4e487b71000000000000000000000000000000000000000000000000000000005f52604160045260245ffd5b610b7982610b33565b810181811067ffffffffffffffff82111715610b9857610b97610b43565b5b80604052505050565b5f610baa61084c565b9050610bb68282610b70565b919050565b5f67ffffffffffffffff821115610bd557610bd4610b43565b5b602082029050602081019050919050565b5f610bf8610bf384610bbb565b610ba1565b90508083825260208201905060208402830185811115610c1b57610c1a610898565b5b835b81811015610c445780610c308882610937565b845260208401935050602081019050610c1d565b5050509392505050565b5f82601f830112610c6257610c61610890565b5b8135610c72848260208601610be6565b91505092915050565b5f8060408385031215610c9157610c90610855565b5b5f610c9e8582860161087c565b925050602083013567ffffffffffffffff811115610cbf57610cbe610859565b5b610ccb85828601610c4e565b9150509250929050565b5f805f805f805f80610100898b031215610cf257610cf1610855565b5b5f610cff8b828c01610937565b9850506020610d108b828c01610937565b9750506040610d218b828c0161087c565b9650506060610d328b828c0161087c565b9550506080610d438b828c0161087c565b94505060a0610d548b828c0161087c565b93505060c0610d658b828c01610937565b92505060e0610d768b828c0161087c565b9150509295985092959890939650565b5f606082019050610d995f830186610ae3565b610da66020830185610ae3565b610db36040830184610ae3565b949350505050565b5f82825260208201905092915050565b7f4d6f636b556e69737761705632526f757465723a2045585049524544000000005f82015250565b5f610dff601c83610dbb565b9150610e0a82610dcb565b602082019050919050565b5f6020820190508181035f830152610e2c81610df3565b9050919050565b7f4d6f636b556e69737761705632526f757465723a20494e56414c49445f5041545f8201527f4800000000000000000000000000000000000000000000000000000000000000602082015250565b5f610e8d602183610dbb565b9150610e9882610e33565b604082019050919050565b5f6020820190508181035f830152610eba81610e81565b9050919050565b7f4d6f636b556e69737761705632526f757465723a20494e53554646494349454e5f8201527f545f494e5055545f414d4f554e54000000000000000000000000000000000000602082015250565b5f610f1b602e83610dbb565b9150610f2682610ec1565b604082019050919050565b5f6020820190508181035f830152610f4881610f0f565b9050919050565b7f4e487b71000000000000000000000000000000000000000000000000000000005f52603260045260245ffd5b5f60208284031215610f9157610f90610855565b5b5f610f9e84828501610937565b91505092915050565b5f606082019050610fba5f830186610b0b565b610fc76020830185610b0b565b610fd46040830184610ae3565b949350505050565b5f8115159050919050565b610ff081610fdc565b8114610ffa575f80fd5b50565b5f8151905061100b81610fe7565b92915050565b5f6020828403121561102657611025610855565b5b5f61103384828501610ffd565b91505092915050565b7f4d6f636b556e69737761705632526f757465723a205452414e534645525f494e5f8201527f5f4641494c454400000000000000000000000000000000000000000000000000602082015250565b5f611096602783610dbb565b91506110a18261103c565b604082019050919050565b5f6020820190508181035f8301526110c38161108a565b9050919050565b7f4e487b71000000000000000000000000000000000000000000000000000000005f52601160045260245ffd5b5f6111018261085d565b915061110c8361085d565b925082820261111a8161085d565b91508282048414831517611131576111306110ca565b5b5092915050565b7f4e487b71000000000000000000000000000000000000000000000000000000005f52601260045260245ffd5b5f61116f8261085d565b915061117a8361085d565b92508261118a57611189611138565b5b828204905092915050565b7f4d6f636b556e69737761705632526f757465723a20494e53554646494349454e5f8201527f545f4f55545055545f414d4f554e540000000000000000000000000000000000602082015250565b5f6111ef602f83610dbb565b91506111fa82611195565b604082019050919050565b5f6020820190508181035f83015261121c816111e3565b9050919050565b5f6040820190506112365f830185610b0b565b6112436020830184610ae3565b9392505050565b7f4d6f636b556e69737761705632526f757465723a205452414e534645525f4f555f8201527f545f4641494c4544000000000000000000000000000000000000000000000000602082015250565b5f6112a4602883610dbb565b91506112af8261124a565b604082019050919050565b5f6020820190508181035f8301526112d181611298565b9050919050565b7f4d6f636b556e69737761705632526f757465723a20494e53554646494349454e5f8201527f545f414d4f554e54000000000000000000000000000000000000000000000000602082015250565b5f611332602883610dbb565b915061133d826112d8565b604082019050919050565b5f6020820190508181035f83015261135f81611326565b9050919050565b7f4d6f636b556e69737761705632526f757465723a205452414e534645525f415f5f8201527f4641494c45440000000000000000000000000000000000000000000000000000602082015250565b5f6113c0602683610dbb565b91506113cb82611366565b604082019050919050565b5f6020820190508181035f8301526113ed816113b4565b9050919050565b7f4d6f636b556e69737761705632526f757465723a205452414e534645525f425f5f8201527f4641494c45440000000000000000000000000000000000000000000000000000602082015250565b5f61144e602683610dbb565b9150611459826113f4565b604082019050919050565b5f6020820190508181035f83015261147b81611442565b905091905056fea2646970667358221220f5df85822e5e6c683e58fec19abaa0f902bb04e8dc2c92bc09aee2e9635641d764736f6c63430008140033000000000000000000000000fec728461f2f7c6ab4ebe6993de92b3cfc561be3",
        "nonce": "0x230",
        "chainId": "0xaa36a7"
      },
      "additionalContracts": [],
      "isFixedGasLimit": false
    },
    {
      "hash": "0xc61af54f58412448537b30d612aac52617e11adfab1e545add980e8715201f95",
      "transactionType": "CREATE",
      "contractName": "MockUniswapV2Router",
      "contractAddress": "0x078084d4e40b8dc7c6c20bf29ec918b77c58d22e",
      "function": null,
      "arguments": [
        "0x3a3cB1F64887B030cF574134a8e77966D223502f"
      ],
      "transaction": {
        "from": "0xb04ba78b7413c3265ffc1293a4659dea54ef0851",
        "gas": "0x18324f",
        "value": "0x0",
        "input": "0x608060405234801562000010575f80fd5b50604051620015d7380380620015d78339818101604052810190620000369190620000e1565b805f806101000a81548173ffffffffffffffffffffffffffffffffffffffff021916908373ffffffffffffffffffffffffffffffffffffffff1602179055505062000111565b5f80fd5b5f73ffffffffffffffffffffffffffffffffffffffff82169050919050565b5f620000ab8262000080565b9050919050565b620000bd816200009f565b8114620000c8575f80fd5b50565b5f81519050620000db81620000b2565b92915050565b5f60208284031215620000f957620000f86200007c565b5b5f6200010884828501620000cb565b91505092915050565b6114b8806200011f5f395ff3fe608060405234801561000f575f80fd5b5060043610610060575f3560e01c806338ed17391461006457806391b7f5ed14610094578063a035b1fe146100b0578063c45a0155146100ce578063d06ca61f146100ec578063e8e337001461011c575b5f80fd5b61007e6004803603810190610079919061094b565b61014e565b60405161008b9190610a98565b60405180910390f35b6100ae60048036038101906100a99190610ab8565b61051a565b005b6100b8610524565b6040516100c59190610af2565b60405180910390f35b6100d661052a565b6040516100e39190610b1a565b60405180910390f35b61010660048036038101906101019190610c7b565b61054d565b6040516101139190610a98565b60405180910390f35b61013660048036038101906101319190610cd5565b610602565b60405161014593929190610d86565b60405180910390f35b606081421115610193576040517f08c379a000000000000000000000000000000000000000000000000000000000815260040161018a90610e15565b60405180910390fd5b600285859050146101d9576040517f08c379a00000000000000000000000000000000000000000000000000000000081526004016101d090610ea3565b60405180910390fd5b5f871161021b576040517f08c379a000000000000000000000000000000000000000000000000000000000815260040161021290610f31565b60405180910390fd5b5f85855f81811061022f5761022e610f4f565b5b90506020020160208101906102449190610f7c565b90505f8686600181811061025b5761025a610f4f565b5b90506020020160208101906102709190610f7c565b90508173ffffffffffffffffffffffffffffffffffffffff166323b872dd33308c6040518463ffffffff1660e01b81526004016102af93929190610fa7565b6020604051808303815f875af11580156102cb573d5f803e3d5ffd5b505050506040513d601f19601f820116820180604052508101906102ef9190611011565b61032e576040517f08c379a0000000000000000000000000000000000000000000000000000000008152600401610325906110ac565b60405180910390fd5b600267ffffffffffffffff81111561034957610348610b43565b5b6040519080825280602002602001820160405280156103775781602001602082028036833780820191505090505b50925088835f8151811061038e5761038d610f4f565b5b602002602001018181525050670de0b6b3a76400006001548a6103b191906110f7565b6103bb9190611165565b836001815181106103cf576103ce610f4f565b5b60200260200101818152505087836001815181106103f0576103ef610f4f565b5b60200260200101511015610439576040517f08c379a000000000000000000000000000000000000000000000000000000000815260040161043090611205565b60405180910390fd5b8073ffffffffffffffffffffffffffffffffffffffff1663a9059cbb868560018151811061046a57610469610f4f565b5b60200260200101516040518363ffffffff1660e01b815260040161048f929190611223565b6020604051808303815f875af11580156104ab573d5f803e3d5ffd5b505050506040513d601f19601f820116820180604052508101906104cf9190611011565b61050e576040517f08c379a0000000000000000000000000000000000000000000000000000000008152600401610505906112ba565b60405180910390fd5b50509695505050505050565b8060018190555050565b60015481565b5f8054906101000a900473ffffffffffffffffffffffffffffffffffffffff1681565b6060600267ffffffffffffffff81111561056a57610569610b43565b5b6040519080825280602002602001820160405280156105985781602001602082028036833780820191505090505b50905082815f815181106105af576105ae610f4f565b5b602002602001018181525050670de0b6b3a7640000600154846105d291906110f7565b6105dc9190611165565b816001815181106105f0576105ef610f4f565b5b60200260200101818152505092915050565b5f805f83421115610648576040517f08c379a000000000000000000000000000000000000000000000000000000000815260040161063f90610e15565b60405180910390fd5b5f8911801561065657505f88115b610695576040517f08c379a000000000000000000000000000000000000000000000000000000000815260040161068c90611348565b60405180910390fd5b5f8b90505f8b90508173ffffffffffffffffffffffffffffffffffffffff166323b872dd33308e6040518463ffffffff1660e01b81526004016106da93929190610fa7565b6020604051808303815f875af11580156106f6573d5f803e3d5ffd5b505050506040513d601f19601f8201168201806040525081019061071a9190611011565b610759576040517f08c379a0000000000000000000000000000000000000000000000000000000008152600401610750906113d6565b60405180910390fd5b8073ffffffffffffffffffffffffffffffffffffffff166323b872dd33308d6040518463ffffffff1660e01b815260040161079693929190610fa7565b6020604051808303815f875af11580156107b2573d5f803e3d5ffd5b505050506040513d601f19601f820116820180604052508101906107d69190611011565b610815576040517f08c379a000000000000000000000000000000000000000000000000000000000815260040161080c90611464565b60405180910390fd5b8a9450899350670de0b6b3a7640000848661083091906110f7565b61083a9190611165565b92505050985098509895505050505050565b5f604051905090565b5f80fd5b5f80fd5b5f819050919050565b61086f8161085d565b8114610879575f80fd5b50565b5f8135905061088a81610866565b92915050565b5f80fd5b5f80fd5b5f80fd5b5f8083601f8401126108b1576108b0610890565b5b8235905067ffffffffffffffff8111156108ce576108cd610894565b5b6020830191508360208202830111156108ea576108e9610898565b5b9250929050565b5f73ffffffffffffffffffffffffffffffffffffffff82169050919050565b5f61091a826108f1565b9050919050565b61092a81610910565b8114610934575f80fd5b50565b5f8135905061094581610921565b92915050565b5f805f805f8060a0878903121561096557610964610855565b5b5f61097289828a0161087c565b965050602061098389828a0161087c565b955050604087013567ffffffffffffffff8111156109a4576109a3610859565b5b6109b089828a0161089c565b945094505060606109c389828a01610937565b92505060806109d489828a0161087c565b9150509295509295509295565b5f81519050919050565b5f82825260208201905092915050565b5f819050602082019050919050565b610a138161085d565b82525050565b5f610a248383610a0a565b60208301905092915050565b5f602082019050919050565b5f610a46826109e1565b610a5081856109eb565b9350610a5b836109fb565b805f5b83811015610a8b578151610a728882610a19565b9750610a7d83610a30565b925050600181019050610a5e565b5085935050505092915050565b5f6020820190508181035f830152610ab08184610a3c565b905092915050565b5f60208284031215610acd57610acc610855565b5b5f610ada8482850161087c565b91505092915050565b610aec8161085d565b82525050565b5f602082019050610b055f830184610ae3565b92915050565b610b1481610910565b82525050565b5f602082019050610b2d5f830184610b0b565b92915050565b5f601f19601f8301169050919050565b7f4e487b71000000000000000000000000000000000000000000000000000000005f52604160045260245ffd5b610b7982610b33565b810181811067ffffffffffffffff82111715610b9857610b97610b43565b5b80604052505050565b5f610baa61084c565b9050610bb68282610b70565b919050565b5f67ffffffffffffffff821115610bd557610bd4610b43565b5b602082029050602081019050919050565b5f610bf8610bf384610bbb565b610ba1565b90508083825260208201905060208402830185811115610c1b57610c1a610898565b5b835b81811015610c445780610c308882610937565b845260208401935050602081019050610c1d565b5050509392505050565b5f82601f830112610c6257610c61610890565b5b8135610c72848260208601610be6565b91505092915050565b5f8060408385031215610c9157610c90610855565b5b5f610c9e8582860161087c565b925050602083013567ffffffffffffffff811115610cbf57610cbe610859565b5b610ccb85828601610c4e565b9150509250929050565b5f805f805f805f80610100898b031215610cf257610cf1610855565b5b5f610cff8b828c01610937565b9850506020610d108b828c01610937565b9750506040610d218b828c0161087c565b9650506060610d328b828c0161087c565b9550506080610d438b828c0161087c565b94505060a0610d548b828c0161087c565b93505060c0610d658b828c01610937565b92505060e0610d768b828c0161087c565b9150509295985092959890939650565b5f606082019050610d995f830186610ae3565b610da66020830185610ae3565b610db36040830184610ae3565b949350505050565b5f82825260208201905092915050565b7f4d6f636b556e69737761705632526f757465723a2045585049524544000000005f82015250565b5f610dff601c83610dbb565b9150610e0a82610dcb565b602082019050919050565b5f6020820190508181035f830152610e2c81610df3565b9050919050565b7f4d6f636b556e69737761705632526f757465723a20494e56414c49445f5041545f8201527f4800000000000000000000000000000000000000000000000000000000000000602082015250565b5f610e8d602183610dbb565b9150610e9882610e33565b604082019050919050565b5f6020820190508181035f830152610eba81610e81565b9050919050565b7f4d6f636b556e69737761705632526f757465723a20494e53554646494349454e5f8201527f545f494e5055545f414d4f554e54000000000000000000000000000000000000602082015250565b5f610f1b602e83610dbb565b9150610f2682610ec1565b604082019050919050565b5f6020820190508181035f830152610f4881610f0f565b9050919050565b7f4e487b71000000000000000000000000000000000000000000000000000000005f52603260045260245ffd5b5f60208284031215610f9157610f90610855565b5b5f610f9e84828501610937565b91505092915050565b5f606082019050610fba5f830186610b0b565b610fc76020830185610b0b565b610fd46040830184610ae3565b949350505050565b5f8115159050919050565b610ff081610fdc565b8114610ffa575f80fd5b50565b5f8151905061100b81610fe7565b92915050565b5f6020828403121561102657611025610855565b5b5f61103384828501610ffd565b91505092915050565b7f4d6f636b556e69737761705632526f757465723a205452414e534645525f494e5f8201527f5f4641494c454400000000000000000000000000000000000000000000000000602082015250565b5f611096602783610dbb565b91506110a18261103c565b604082019050919050565b5f6020820190508181035f8301526110c38161108a565b9050919050565b7f4e487b71000000000000000000000000000000000000000000000000000000005f52601160045260245ffd5b5f6111018261085d565b915061110c8361085d565b925082820261111a8161085d565b91508282048414831517611131576111306110ca565b5b5092915050565b7f4e487b71000000000000000000000000000000000000000000000000000000005f52601260045260245ffd5b5f61116f8261085d565b915061117a8361085d565b92508261118a57611189611138565b5b828204905092915050565b7f4d6f636b556e69737761705632526f757465723a20494e53554646494349454e5f8201527f545f4f55545055545f414d4f554e540000000000000000000000000000000000602082015250565b5f6111ef602f83610dbb565b91506111fa82611195565b604082019050919050565b5f6020820190508181035f83015261121c816111e3565b9050919050565b5f6040820190506112365f830185610b0b565b6112436020830184610ae3565b9392505050565b7f4d6f636b556e69737761705632526f757465723a205452414e534645525f4f555f8201527f545f4641494c4544000000000000000000000000000000000000000000000000602082015250565b5f6112a4602883610dbb565b91506112af8261124a565b604082019050919050565b5f6020820190508181035f8301526112d181611298565b9050919050565b7f4d6f636b556e69737761705632526f757465723a20494e53554646494349454e5f8201527f545f414d4f554e54000000000000000000000000000000000000000000000000602082015250565b5f611332602883610dbb565b915061133d826112d8565b604082019050919050565b5f6020820190508181035f83015261135f81611326565b9050919050565b7f4d6f636b556e69737761705632526f757465723a205452414e534645525f415f5f8201527f4641494c45440000000000000000000000000000000000000000000000000000602082015250565b5f6113c0602683610dbb565b91506113cb82611366565b604082019050919050565b5f6020820190508181035f8301526113ed816113b4565b9050919050565b7f4d6f636b556e69737761705632526f757465723a205452414e534645525f425f5f8201527f4641494c45440000000000000000000000000000000000000000000000000000602082015250565b5f61144e602683610dbb565b9150611459826113f4565b604082019050919050565b5f6020820190508181035f83015261147b81611442565b905091905056fea2646970667358221220f5df85822e5e6c683e58fec19abaa0f902bb04e8dc2c92bc09aee2e9635641d764736f6c634300081400330000000000000000000000003a3cb1f64887b030cf574134a8e77966d223502f",
        "nonce": "0x231",
        "chainId": "0xaa36a7"
      },
      "additionalContracts": [],
      "isFixedGasLimit": false
    },
    {
      "hash": "0x4e3c5afdcaa0f251afd3d4e8b66f11f8843285f7168ef451ac16659aebb88b9c",
      "transactionType": "CALL",
      "contractName": "UniswapV2Factory",
      "contractAddress": "0xfec728461f2f7c6ab4ebe6993de92b3cfc561be3",
      "function": "createPair(address,address)",
      "arguments": [
        "0xAe3D8B867152d7A45eb14107ED9c5c11949cDa7A",
        "0x6ed605a8F7A24DA52B367C8A4861B4265403F537"
      ],
      "transaction": {
        "from": "0xb04ba78b7413c3265ffc1293a4659dea54ef0851",
        "to": "0xfec728461f2f7c6ab4ebe6993de92b3cfc561be3",
        "gas": "0x4b584",
        "value": "0x0",
        "input": "0xc9c65396000000000000000000000000ae3d8b867152d7a45eb14107ed9c5c11949cda7a0000000000000000000000006ed605a8f7a24da52b367c8a4861b4265403f537",
        "nonce": "0x232",
        "chainId": "0xaa36a7"
      },
      "additionalContracts": [
        {
          "transactionType": "CREATE",
          "address": "0x865f2b3fee8fd0871a296cb97b0cf50f801fbb17",
          "initCode": "0x608060405234801561000f575f80fd5b506040516102aa3803806102aa83398181016040528101906100319190610115565b815f806101000a81548173ffffffffffffffffffffffffffffffffffffffff021916908373ffffffffffffffffffffffffffffffffffffffff1602179055508060015f6101000a81548173ffffffffffffffffffffffffffffffffffffffff021916908373ffffffffffffffffffffffffffffffffffffffff1602179055505050610153565b5f80fd5b5f73ffffffffffffffffffffffffffffffffffffffff82169050919050565b5f6100e4826100bb565b9050919050565b6100f4816100da565b81146100fe575f80fd5b50565b5f8151905061010f816100eb565b92915050565b5f806040838503121561012b5761012a6100b7565b5b5f61013885828601610101565b925050602061014985828601610101565b9150509250929050565b61014a806101605f395ff3fe608060405234801561000f575f80fd5b5060043610610034575f3560e01c80630dfe168114610038578063d21220a714610056575b5f80fd5b610040610074565b60405161004d91906100fb565b60405180910390f35b61005e610097565b60405161006b91906100fb565b60405180910390f35b5f8054906101000a900473ffffffffffffffffffffffffffffffffffffffff1681565b60015f9054906101000a900473ffffffffffffffffffffffffffffffffffffffff1681565b5f73ffffffffffffffffffffffffffffffffffffffff82169050919050565b5f6100e5826100bc565b9050919050565b6100f5816100db565b82525050565b5f60208201905061010e5f8301846100ec565b9291505056fea2646970667358221220156ead65999b089e95a02908047c7b94da530268f8dee7705bf11313c41d09a064736f6c63430008140033000000000000000000000000ae3d8b867152d7a45eb14107ed9c5c11949cda7a0000000000000000000000006ed605a8f7a24da52b367c8a4861b4265403f537"
        }
      ],
      "isFixedGasLimit": false
    },
    {
      "hash": "0x6f1216f3238c047a14f635f24a15eea41ce486d7a2691ee3dfaad6d5bca479a6",
      "transactionType": "CALL",
      "contractName": "UniswapV2Factory",
      "contractAddress": "0x3a3cb1f64887b030cf574134a8e77966d223502f",
      "function": "createPair(address,address)",
      "arguments": [
        "0xAe3D8B867152d7A45eb14107ED9c5c11949cDa7A",
        "0x6ed605a8F7A24DA52B367C8A4861B4265403F537"
      ],
      "transaction": {
        "from": "0xb04ba78b7413c3265ffc1293a4659dea54ef0851",
        "to": "0x3a3cb1f64887b030cf574134a8e77966d223502f",
        "gas": "0x4b584",
        "value": "0x0",
        "input": "0xc9c65396000000000000000000000000ae3d8b867152d7a45eb14107ed9c5c11949cda7a0000000000000000000000006ed605a8f7a24da52b367c8a4861b4265403f537",
        "nonce": "0x233",
        "chainId": "0xaa36a7"
      },
      "additionalContracts": [
        {
          "transactionType": "CREATE",
          "address": "0xaa91b42293fe7b5fbf53f3a955d21d1b7f6b06ed",
          "initCode": "0x608060405234801561000f575f80fd5b506040516102aa3803806102aa83398181016040528101906100319190610115565b815f806101000a81548173ffffffffffffffffffffffffffffffffffffffff021916908373ffffffffffffffffffffffffffffffffffffffff1602179055508060015f6101000a81548173ffffffffffffffffffffffffffffffffffffffff021916908373ffffffffffffffffffffffffffffffffffffffff1602179055505050610153565b5f80fd5b5f73ffffffffffffffffffffffffffffffffffffffff82169050919050565b5f6100e4826100bb565b9050919050565b6100f4816100da565b81146100fe575f80fd5b50565b5f8151905061010f816100eb565b92915050565b5f806040838503121561012b5761012a6100b7565b5b5f61013885828601610101565b925050602061014985828601610101565b9150509250929050565b61014a806101605f395ff3fe608060405234801561000f575f80fd5b5060043610610034575f3560e01c80630dfe168114610038578063d21220a714610056575b5f80fd5b610040610074565b60405161004d91906100fb565b60405180910390f35b61005e610097565b60405161006b91906100fb565b60405180910390f35b5f8054906101000a900473ffffffffffffffffffffffffffffffffffffffff1681565b60015f9054906101000a900473ffffffffffffffffffffffffffffffffffffffff1681565b5f73ffffffffffffffffffffffffffffffffffffffff82169050919050565b5f6100e5826100bc565b9050919050565b6100f5816100db565b82525050565b5f60208201905061010e5f8301846100ec565b9291505056fea2646970667358221220156ead65999b089e95a02908047c7b94da530268f8dee7705bf11313c41d09a064736f6c63430008140033000000000000000000000000ae3d8b867152d7a45eb14107ed9c5c11949cda7a0000000000000000000000006ed605a8f7a24da52b367c8a4861b4265403f537"
        }
      ],
      "isFixedGasLimit": false
    },
    {
      "hash": "0x876cc56155bdb05ce7f3cd8ceeba93f282d14486aee2a4c63b69e1b7ae02bf0b",
      "transactionType": "CALL",
      "contractName": "WETH",
      "contractAddress": "0xae3d8b867152d7a45eb14107ed9c5c11949cda7a",
      "function": "approve(address,uint256)",
      "arguments": [
        "0x840a7f872D2f585f71bF4859037981Ca90fb174F",
        "1000000000000000000000"
      ],
      "transaction": {
        "from": "0xb04ba78b7413c3265ffc1293a4659dea54ef0851",
        "to": "0xae3d8b867152d7a45eb14107ed9c5c11949cda7a",
        "gas": "0xfd45",
        "value": "0x0",
        "input": "0x095ea7b3000000000000000000000000840a7f872d2f585f71bf4859037981ca90fb174f00000000000000000000000000000000000000000000003635c9adc5dea00000",
        "nonce": "0x234",
        "chainId": "0xaa36a7"
      },
      "additionalContracts": [],
      "isFixedGasLimit": false
    },
    {
      "hash": "0x3ee9ae96709ff5cbac477449a014fb8d9f4ef05c68afa4864593cec19cb5c622",
      "transactionType": "CALL",
      "contractName": "MockDAI",
      "contractAddress": "0x6ed605a8f7a24da52b367c8a4861b4265403f537",
      "function": "approve(address,uint256)",
      "arguments": [
        "0x840a7f872D2f585f71bF4859037981Ca90fb174F",
        "1200000000000000000000000"
      ],
      "transaction": {
        "from": "0xb04ba78b7413c3265ffc1293a4659dea54ef0851",
        "to": "0x6ed605a8f7a24da52b367c8a4861b4265403f537",
        "gas": "0xfd45",
        "value": "0x0",
        "input": "0x095ea7b3000000000000000000000000840a7f872d2f585f71bf4859037981ca90fb174f00000000000000000000000000000000000000000000fe1c215e8f838e000000",
        "nonce": "0x235",
        "chainId": "0xaa36a7"
      },
      "additionalContracts": [],
      "isFixedGasLimit": false
    },
    {
      "hash": "0x376836ebd9c5c5b4f73e06d617ad8766aee0497fe0b4c9da4b2b49d2a11be5a3",
      "transactionType": "CALL",
      "contractName": "WETH",
      "contractAddress": "0xae3d8b867152d7a45eb14107ed9c5c11949cda7a",
      "function": "approve(address,uint256)",
      "arguments": [
        "0x078084d4e40b8DC7c6C20BF29Ec918b77C58d22E",
        "1000000000000000000000"
      ],
      "transaction": {
        "from": "0xb04ba78b7413c3265ffc1293a4659dea54ef0851",
        "to": "0xae3d8b867152d7a45eb14107ed9c5c11949cda7a",
        "gas": "0xfd45",
        "value": "0x0",
        "input": "0x095ea7b3000000000000000000000000078084d4e40b8dc7c6c20bf29ec918b77c58d22e00000000000000000000000000000000000000000000003635c9adc5dea00000",
        "nonce": "0x236",
        "chainId": "0xaa36a7"
      },
      "additionalContracts": [],
      "isFixedGasLimit": false
    },
    {
      "hash": "0x46dcc9f3064f1698d949275a520220d0410a8c8db691bbfa8af5640ab550283a",
      "transactionType": "CALL",
      "contractName": "MockDAI",
      "contractAddress": "0x6ed605a8f7a24da52b367c8a4861b4265403f537",
      "function": "approve(address,uint256)",
      "arguments": [
        "0x078084d4e40b8DC7c6C20BF29Ec918b77C58d22E",
        "1000000000000000000000000"
      ],
      "transaction": {
        "from": "0xb04ba78b7413c3265ffc1293a4659dea54ef0851",
        "to": "0x6ed605a8f7a24da52b367c8a4861b4265403f537",
        "gas": "0xfd45",
        "value": "0x0",
        "input": "0x095ea7b3000000000000000000000000078084d4e40b8dc7c6c20bf29ec918b77c58d22e00000000000000000000000000000000000000000000d3c21bcecceda1000000",
        "nonce": "0x237",
        "chainId": "0xaa36a7"
      },
      "additionalContracts": [],
      "isFixedGasLimit": false
    },
    {
      "hash": "0x2b235cb743047e811bd1facaa5ed05cb11b77f710800c32f950a2a76b3c4f20d",
      "transactionType": "CALL",
      "contractName": "MockUniswapV2Router",
      "contractAddress": "0x840a7f872d2f585f71bf4859037981ca90fb174f",
      "function": "addLiquidity(address,address,uint256,uint256,uint256,uint256,address,uint256)",
      "arguments": [
        "0xAe3D8B867152d7A45eb14107ED9c5c11949cDa7A",
        "0x6ed605a8F7A24DA52B367C8A4861B4265403F537",
        "1000000000000000000000",
        "1200000000000000000000000",
        "0",
        "0",
        "0xB04Ba78b7413C3265ffC1293a4659dEA54Ef0851",
        "1751438892"
      ],
      "transaction": {
        "from": "0xb04ba78b7413c3265ffc1293a4659dea54ef0851",
        "to": "0x840a7f872d2f585f71bf4859037981ca90fb174f",
        "gas": "0x2059a",
        "value": "0x0",
        "input": "0xe8e33700000000000000000000000000ae3d8b867152d7a45eb14107ed9c5c11949cda7a0000000000000000000000006ed605a8f7a24da52b367c8a4861b4265403f53700000000000000000000000000000000000000000000003635c9adc5dea0000000000000000000000000000000000000000000000000fe1c215e8f838e00000000000000000000000000000000000000000000000000000000000000000000000000000000000000000000000000000000000000000000000000000000000000000000000000000000000000b04ba78b7413c3265ffc1293a4659dea54ef0851000000000000000000000000000000000000000000000000000000006864d62c",
        "nonce": "0x238",
        "chainId": "0xaa36a7"
      },
      "additionalContracts": [],
      "isFixedGasLimit": false
    },
    {
      "hash": "0x58205873c30169dcb5b544c899dbbf5d752b6ab27b87b083dcdf634f692d73dc",
      "transactionType": "CALL",
      "contractName": "MockUniswapV2Router",
      "contractAddress": "0x078084d4e40b8dc7c6c20bf29ec918b77c58d22e",
      "function": "addLiquidity(address,address,uint256,uint256,uint256,uint256,address,uint256)",
      "arguments": [
        "0xAe3D8B867152d7A45eb14107ED9c5c11949cDa7A",
        "0x6ed605a8F7A24DA52B367C8A4861B4265403F537",
        "1000000000000000000000",
        "1000000000000000000000000",
        "0",
        "0",
        "0xB04Ba78b7413C3265ffC1293a4659dEA54Ef0851",
        "1751438892"
      ],
      "transaction": {
        "from": "0xb04ba78b7413c3265ffc1293a4659dea54ef0851",
        "to": "0x078084d4e40b8dc7c6c20bf29ec918b77c58d22e",
        "gas": "0x2059a",
        "value": "0x0",
        "input": "0xe8e33700000000000000000000000000ae3d8b867152d7a45eb14107ed9c5c11949cda7a0000000000000000000000006ed605a8f7a24da52b367c8a4861b4265403f53700000000000000000000000000000000000000000000003635c9adc5dea0000000000000000000000000000000000000000000000000d3c21bcecceda100000000000000000000000000000000000000000000000000000000000000000000000000000000000000000000000000000000000000000000000000000000000000000000000000000000000000b04ba78b7413c3265ffc1293a4659dea54ef0851000000000000000000000000000000000000000000000000000000006864d62c",
        "nonce": "0x239",
        "chainId": "0xaa36a7"
      },
      "additionalContracts": [],
      "isFixedGasLimit": false
    },
    {
      "hash": "0x50324d28fb62349f8de254f5a3e691cfee487b1a29546af44d73e3d72c064fd2",
      "transactionType": "CALL",
      "contractName": "WETH",
      "contractAddress": "0xae3d8b867152d7a45eb14107ed9c5c11949cda7a",
      "function": "transfer(address,uint256)",
      "arguments": [
        "0x840a7f872D2f585f71bF4859037981Ca90fb174F",
        "100000000000000000000"
      ],
      "transaction": {
        "from": "0xb04ba78b7413c3265ffc1293a4659dea54ef0851",
        "to": "0xae3d8b867152d7a45eb14107ed9c5c11949cda7a",
        "gas": "0xbd59",
        "value": "0x0",
        "input": "0xa9059cbb000000000000000000000000840a7f872d2f585f71bf4859037981ca90fb174f0000000000000000000000000000000000000000000000056bc75e2d63100000",
        "nonce": "0x23a",
        "chainId": "0xaa36a7"
      },
      "additionalContracts": [],
      "isFixedGasLimit": false
    },
    {
      "hash": "0xae6f5c3f6db712debdc74457897bd7b2f02ab921811b031499c9c5be96c7c24a",
      "transactionType": "CALL",
      "contractName": "MockDAI",
      "contractAddress": "0x6ed605a8f7a24da52b367c8a4861b4265403f537",
      "function": "transfer(address,uint256)",
      "arguments": [
        "0x840a7f872D2f585f71bF4859037981Ca90fb174F",
        "120000000000000000000000"
      ],
      "transaction": {
        "from": "0xb04ba78b7413c3265ffc1293a4659dea54ef0851",
        "to": "0x6ed605a8f7a24da52b367c8a4861b4265403f537",
        "gas": "0xbd59",
        "value": "0x0",
        "input": "0xa9059cbb000000000000000000000000840a7f872d2f585f71bf4859037981ca90fb174f000000000000000000000000000000000000000000001969368974c05b000000",
        "nonce": "0x23b",
        "chainId": "0xaa36a7"
      },
      "additionalContracts": [],
      "isFixedGasLimit": false
    },
    {
      "hash": "0x2a7718198818b9f31b505e986611de4241650098bedc99812f0e64e7e57af208",
      "transactionType": "CALL",
      "contractName": "WETH",
      "contractAddress": "0xae3d8b867152d7a45eb14107ed9c5c11949cda7a",
      "function": "transfer(address,uint256)",
      "arguments": [
        "0x078084d4e40b8DC7c6C20BF29Ec918b77C58d22E",
        "100000000000000000000"
      ],
      "transaction": {
        "from": "0xb04ba78b7413c3265ffc1293a4659dea54ef0851",
        "to": "0xae3d8b867152d7a45eb14107ed9c5c11949cda7a",
        "gas": "0xbd59",
        "value": "0x0",
        "input": "0xa9059cbb000000000000000000000000078084d4e40b8dc7c6c20bf29ec918b77c58d22e0000000000000000000000000000000000000000000000056bc75e2d63100000",
        "nonce": "0x23c",
        "chainId": "0xaa36a7"
      },
      "additionalContracts": [],
      "isFixedGasLimit": false
    },
    {
      "hash": "0x7d2c69d5d06268bdabcbdd4b3468d273e49138043be1cd344caa9437eeb07b5f",
      "transactionType": "CALL",
      "contractName": "MockDAI",
      "contractAddress": "0x6ed605a8f7a24da52b367c8a4861b4265403f537",
      "function": "transfer(address,uint256)",
      "arguments": [
        "0x078084d4e40b8DC7c6C20BF29Ec918b77C58d22E",
        "100000000000000000000000"
      ],
      "transaction": {
        "from": "0xb04ba78b7413c3265ffc1293a4659dea54ef0851",
        "to": "0x6ed605a8f7a24da52b367c8a4861b4265403f537",
        "gas": "0xc88e",
        "value": "0x0",
        "input": "0xa9059cbb000000000000000000000000078084d4e40b8dc7c6c20bf29ec918b77c58d22e00000000000000000000000000000000000000000000152d02c7e14af6800000",
        "nonce": "0x23d",
        "chainId": "0xaa36a7"
      },
      "additionalContracts": [],
      "isFixedGasLimit": false
    },
    {
      "hash": "0xfc4b424752c853d9dbee7ca2db295a6ed8db950c7337a43f13032c319acbb0a4",
      "transactionType": "CALL",
      "contractName": "MockUniswapV2Router",
      "contractAddress": "0x840a7f872d2f585f71bf4859037981ca90fb174f",
      "function": "setPrice(uint256)",
      "arguments": [
        "1200000000000000000000"
      ],
      "transaction": {
        "from": "0xb04ba78b7413c3265ffc1293a4659dea54ef0851",
        "to": "0x840a7f872d2f585f71bf4859037981ca90fb174f",
        "gas": "0xec45",
        "value": "0x0",
        "input": "0x91b7f5ed0000000000000000000000000000000000000000000000410d586a20a4c00000",
        "nonce": "0x23e",
        "chainId": "0xaa36a7"
      },
      "additionalContracts": [],
      "isFixedGasLimit": false
    },
    {
      "hash": "0xfa37a80b4802f1c44878a2445e13614363f816721f26e74a599df93773ad3b91",
      "transactionType": "CALL",
      "contractName": "MockUniswapV2Router",
      "contractAddress": "0x078084d4e40b8dc7c6c20bf29ec918b77c58d22e",
      "function": "setPrice(uint256)",
      "arguments": [
        "1000000000000000000000"
      ],
      "transaction": {
        "from": "0xb04ba78b7413c3265ffc1293a4659dea54ef0851",
        "to": "0x078084d4e40b8dc7c6c20bf29ec918b77c58d22e",
        "gas": "0xec45",
        "value": "0x0",
        "input": "0x91b7f5ed00000000000000000000000000000000000000000000003635c9adc5dea00000",
        "nonce": "0x23f",
        "chainId": "0xaa36a7"
      },
      "additionalContracts": [],
      "isFixedGasLimit": false
    }
  ],
  "receipts": [
    {
      "status": "0x1",
      "cumulativeGasUsed": "0x12270e7",
      "logs": [
        {
          "address": "0xae3d8b867152d7a45eb14107ed9c5c11949cda7a",
          "topics": [
            "0xddf252ad1be2c89b69c2b068fc378daa952ba7f163c4a11628f55a4df523b3ef",
            "0x0000000000000000000000000000000000000000000000000000000000000000",
            "0x000000000000000000000000b04ba78b7413c3265ffc1293a4659dea54ef0851"
          ],
          "data": "0x00000000000000000000000000000000000000000000021e19e0c9bab2400000",
          "blockHash": "0xe4d46c6b61556e48a6285ec12872dbe25bf69c528acddd83f1a8673a1d1a1592",
          "blockNumber": "0x845c43",
          "blockTimestamp": "0x6864d608",
          "transactionHash": "0x3b705f4c566c086c577b93889ac6fae617139d81f10989fb83dfcb2e88f6ee4b",
          "transactionIndex": "0x139",
          "logIndex": "0x1ec",
          "removed": false
        }
      ],
      "logsBloom": "0x00000000000000000000000000000000000000000000000000000000000200000000000000000000000080000000000000000000010000000000000000000000000000000000000000020008000000000000000000000000000000000000000000000000020000000000000000000800000000000000000000000010000000000000000000000000000000000000000000000000000000000004000000000000000000000000000000000000000000000000000000000000000000008000000000000002000000000000000000000000000000000000000000000000000020000000000000000000000000000000000000000000000000000000000000000000",
      "type": "0x2",
      "transactionHash": "0x3b705f4c566c086c577b93889ac6fae617139d81f10989fb83dfcb2e88f6ee4b",
      "transactionIndex": "0x139",
      "blockHash": "0xe4d46c6b61556e48a6285ec12872dbe25bf69c528acddd83f1a8673a1d1a1592",
      "blockNumber": "0x845c43",
      "gasUsed": "0xe6de3",
      "effectiveGasPrice": "0x7568f6bf8",
      "from": "0xb04ba78b7413c3265ffc1293a4659dea54ef0851",
      "to": null,
      "contractAddress": "0xae3d8b867152d7a45eb14107ed9c5c11949cda7a"
    },
    {
      "status": "0x1",
      "cumulativeGasUsed": "0x131753d",
      "logs": [
        {
          "address": "0x6ed605a8f7a24da52b367c8a4861b4265403f537",
          "topics": [
            "0xddf252ad1be2c89b69c2b068fc378daa952ba7f163c4a11628f55a4df523b3ef",
            "0x0000000000000000000000000000000000000000000000000000000000000000",
            "0x000000000000000000000000b04ba78b7413c3265ffc1293a4659dea54ef0851"
          ],
          "data": "0x00000000000000000000000000000000000000000003a3bc7a5ab8e25e000000",
          "blockHash": "0xe4d46c6b61556e48a6285ec12872dbe25bf69c528acddd83f1a8673a1d1a1592",
          "blockNumber": "0x845c43",
          "blockTimestamp": "0x6864d608",
          "transactionHash": "0x8146c966346d1b123cdebb1b925a6e7a3284bed69959ab486804eff520039079",
          "transactionIndex": "0x13a",
          "logIndex": "0x1ed",
          "removed": false
        }
      ],
      "logsBloom": "0x00000000000000000000000000000000000000000000000000000000000000000000000000000000000080000000000000000000000000000000000000000000000000000000000000020008000000000000000000000000000000000000000000000000020000000000000000000800000000000100000000000010000000000000000000000000000000000000000000000000000000000004000000000000000000000000000000000000000000000800000000000000000000000000000000000002000000000000000000000000000000000000000000000000000020000002000000000000000000000000000000000000000000000000000000000000",
      "type": "0x2",
      "transactionHash": "0x8146c966346d1b123cdebb1b925a6e7a3284bed69959ab486804eff520039079",
      "transactionIndex": "0x13a",
      "blockHash": "0xe4d46c6b61556e48a6285ec12872dbe25bf69c528acddd83f1a8673a1d1a1592",
      "blockNumber": "0x845c43",
      "gasUsed": "0xf0456",
      "effectiveGasPrice": "0x7568f6bf8",
      "from": "0xb04ba78b7413c3265ffc1293a4659dea54ef0851",
      "to": null,
      "contractAddress": "0x6ed605a8f7a24da52b367c8a4861b4265403f537"
    },
    {
      "status": "0x1",
      "cumulativeGasUsed": "0x1379a99",
      "logs": [],
      "logsBloom": "0x00000000000000000000000000000000000000000000000000000000000000000000000000000000000000000000000000000000000000000000000000000000000000000000000000000000000000000000000000000000000000000000000000000000000000000000000000000000000000000000000000000000000000000000000000000000000000000000000000000000000000000000000000000000000000000000000000000000000000000000000000000000000000000000000000000000000000000000000000000000000000000000000000000000000000000000000000000000000000000000000000000000000000000000000000000000",
      "type": "0x2",
      "transactionHash": "0x5616ac458ed4f2adea666fffe9fe71a365468f0a2c8d0ef4bb6bb9e57b2e8a8c",
      "transactionIndex": "0x13b",
      "blockHash": "0xe4d46c6b61556e48a6285ec12872dbe25bf69c528acddd83f1a8673a1d1a1592",
      "blockNumber": "0x845c43",
      "gasUsed": "0x6255c",
      "effectiveGasPrice": "0x7568f6bf8",
      "from": "0xb04ba78b7413c3265ffc1293a4659dea54ef0851",
      "to": null,
      "contractAddress": "0xfec728461f2f7c6ab4ebe6993de92b3cfc561be3"
    },
    {
      "status": "0x1",
      "cumulativeGasUsed": "0x13dbff5",
      "logs": [],
      "logsBloom": "0x00000000000000000000000000000000000000000000000000000000000000000000000000000000000000000000000000000000000000000000000000000000000000000000000000000000000000000000000000000000000000000000000000000000000000000000000000000000000000000000000000000000000000000000000000000000000000000000000000000000000000000000000000000000000000000000000000000000000000000000000000000000000000000000000000000000000000000000000000000000000000000000000000000000000000000000000000000000000000000000000000000000000000000000000000000000",
      "type": "0x2",
      "transactionHash": "0x519591510aede89cc324aad85b786f78c0e059b12ae16fb18d95f925bbf743a9",
      "transactionIndex": "0x13c",
      "blockHash": "0xe4d46c6b61556e48a6285ec12872dbe25bf69c528acddd83f1a8673a1d1a1592",
      "blockNumber": "0x845c43",
      "gasUsed": "0x6255c",
      "effectiveGasPrice": "0x7568f6bf8",
      "from": "0xb04ba78b7413c3265ffc1293a4659dea54ef0851",
      "to": null,
      "contractAddress": "0x3a3cb1f64887b030cf574134a8e77966d223502f"
    },
    {
      "status": "0x1",
      "cumulativeGasUsed": "0x1505cd0",
      "logs": [],
      "logsBloom": "0x00000000000000000000000000000000000000000000000000000000000000000000000000000000000000000000000000000000000000000000000000000000000000000000000000000000000000000000000000000000000000000000000000000000000000000000000000000000000000000000000000000000000000000000000000000000000000000000000000000000000000000000000000000000000000000000000000000000000000000000000000000000000000000000000000000000000000000000000000000000000000000000000000000000000000000000000000000000000000000000000000000000000000000000000000000000",
      "type": "0x2",
      "transactionHash": "0xd27d11bb9ab4937fa52034db40667f3a65c2fb96f5aef99bb095ac69438a751c",
      "transactionIndex": "0x13d",
      "blockHash": "0xe4d46c6b61556e48a6285ec12872dbe25bf69c528acddd83f1a8673a1d1a1592",
      "blockNumber": "0x845c43",
      "gasUsed": "0x129cdb",
      "effectiveGasPrice": "0x7568f6bf8",
      "from": "0xb04ba78b7413c3265ffc1293a4659dea54ef0851",
      "to": null,
      "contractAddress": "0x840a7f872d2f585f71bf4859037981ca90fb174f"
    },
    {
      "status": "0x1",
      "cumulativeGasUsed": "0x162f9ab",
      "logs": [],
      "logsBloom": "0x00000000000000000000000000000000000000000000000000000000000000000000000000000000000000000000000000000000000000000000000000000000000000000000000000000000000000000000000000000000000000000000000000000000000000000000000000000000000000000000000000000000000000000000000000000000000000000000000000000000000000000000000000000000000000000000000000000000000000000000000000000000000000000000000000000000000000000000000000000000000000000000000000000000000000000000000000000000000000000000000000000000000000000000000000000000",
      "type": "0x2",
      "transactionHash": "0xc61af54f58412448537b30d612aac52617e11adfab1e545add980e8715201f95",
      "transactionIndex": "0x13e",
      "blockHash": "0xe4d46c6b61556e48a6285ec12872dbe25bf69c528acddd83f1a8673a1d1a1592",
      "blockNumber": "0x845c43",
      "gasUsed": "0x129cdb",
      "effectiveGasPrice": "0x7568f6bf8",
      "from": "0xb04ba78b7413c3265ffc1293a4659dea54ef0851",
      "to": null,
      "contractAddress": "0x078084d4e40b8dc7c6c20bf29ec918b77c58d22e"
    },
    {
      "status": "0x1",
      "cumulativeGasUsed": "0x16e267c",
      "logs": [],
      "logsBloom": "0x00000000000000000000000000000000000000000000000000000000000000000000000000000000000000000000000000000000000000000000000000000000000000000000000000000000000000000000000000000000000000000000000000000000000000000000000000000000000000000000000000000000000000000000000000000000000000000000000000000000000000000000000000000000000000000000000000000000000000000000000000000000000000000000000000000000000000000000000000000000000000000000000000000000000000000000000000000000000000000000000000000000000000000000000000000000",
      "type": "0x2",
      "transactionHash": "0x4e3c5afdcaa0f251afd3d4e8b66f11f8843285f7168ef451ac16659aebb88b9c",
      "transactionIndex": "0x1a2",
      "blockHash": "0xcb6d478b31da5a972d70900c1db6f171ffbc8def7f6a6628eeea52157da1b7ed",
      "blockNumber": "0x845c44",
      "gasUsed": "0x33849",
      "effectiveGasPrice": "0x74d761777",
      "from": "0xb04ba78b7413c3265ffc1293a4659dea54ef0851",
      "to": "0xfec728461f2f7c6ab4ebe6993de92b3cfc561be3",
      "contractAddress": null
    },
    {
      "status": "0x1",
      "cumulativeGasUsed": "0x1715ec5",
      "logs": [],
      "logsBloom": "0x00000000000000000000000000000000000000000000000000000000000000000000000000000000000000000000000000000000000000000000000000000000000000000000000000000000000000000000000000000000000000000000000000000000000000000000000000000000000000000000000000000000000000000000000000000000000000000000000000000000000000000000000000000000000000000000000000000000000000000000000000000000000000000000000000000000000000000000000000000000000000000000000000000000000000000000000000000000000000000000000000000000000000000000000000000000",
      "type": "0x2",
      "transactionHash": "0x6f1216f3238c047a14f635f24a15eea41ce486d7a2691ee3dfaad6d5bca479a6",
      "transactionIndex": "0x1a3",
      "blockHash": "0xcb6d478b31da5a972d70900c1db6f171ffbc8def7f6a6628eeea52157da1b7ed",
      "blockNumber": "0x845c44",
      "gasUsed": "0x33849",
      "effectiveGasPrice": "0x74d761777",
      "from": "0xb04ba78b7413c3265ffc1293a4659dea54ef0851",
      "to": "0x3a3cb1f64887b030cf574134a8e77966d223502f",
      "contractAddress": null
    },
    {
      "status": "0x1",
      "cumulativeGasUsed": "0x1721623",
      "logs": [
        {
          "address": "0xae3d8b867152d7a45eb14107ed9c5c11949cda7a",
          "topics": [
            "0x8c5be1e5ebec7d5bd14f71427d1e84f3dd0314c0f7b2291e5b200ac8c7c3b925",
            "0x000000000000000000000000b04ba78b7413c3265ffc1293a4659dea54ef0851",
            "0x000000000000000000000000840a7f872d2f585f71bf4859037981ca90fb174f"
          ],
          "data": "0x00000000000000000000000000000000000000000000003635c9adc5dea00000",
          "blockHash": "0xcb6d478b31da5a972d70900c1db6f171ffbc8def7f6a6628eeea52157da1b7ed",
          "blockNumber": "0x845c44",
          "blockTimestamp": "0x6864d614",
          "transactionHash": "0x876cc56155bdb05ce7f3cd8ceeba93f282d14486aee2a4c63b69e1b7ae02bf0b",
          "transactionIndex": "0x1a4",
          "logIndex": "0x29a",
          "removed": false
        }
      ],
      "logsBloom": "0x00000000000000000000000000000000000000000000000000000000000200000000000000000000000080000000000000000000010000000000100000200000000000000000000000020000000000000000000000000000000000000000000000000000000000000000000000000000000000000000000000000000200000000000000000000000000000000000000000000000000000000004000000004000020000000000000000000000000000000000000000000000000000008000000000000000000000000000000000000000000000000000000000000000000000000010000000000000000000000000000000000000000000000000000000000000",
      "type": "0x2",
      "transactionHash": "0x876cc56155bdb05ce7f3cd8ceeba93f282d14486aee2a4c63b69e1b7ae02bf0b",
      "transactionIndex": "0x1a4",
      "blockHash": "0xcb6d478b31da5a972d70900c1db6f171ffbc8def7f6a6628eeea52157da1b7ed",
      "blockNumber": "0x845c44",
      "gasUsed": "0xb75e",
      "effectiveGasPrice": "0x74d761777",
      "from": "0xb04ba78b7413c3265ffc1293a4659dea54ef0851",
      "to": "0xae3d8b867152d7a45eb14107ed9c5c11949cda7a",
      "contractAddress": null
    },
    {
      "status": "0x1",
      "cumulativeGasUsed": "0x172cd81",
      "logs": [
        {
          "address": "0x6ed605a8f7a24da52b367c8a4861b4265403f537",
          "topics": [
            "0x8c5be1e5ebec7d5bd14f71427d1e84f3dd0314c0f7b2291e5b200ac8c7c3b925",
            "0x000000000000000000000000b04ba78b7413c3265ffc1293a4659dea54ef0851",
            "0x000000000000000000000000840a7f872d2f585f71bf4859037981ca90fb174f"
          ],
          "data": "0x00000000000000000000000000000000000000000000fe1c215e8f838e000000",
          "blockHash": "0xcb6d478b31da5a972d70900c1db6f171ffbc8def7f6a6628eeea52157da1b7ed",
          "blockNumber": "0x845c44",
          "blockTimestamp": "0x6864d614",
          "transactionHash": "0x3ee9ae96709ff5cbac477449a014fb8d9f4ef05c68afa4864593cec19cb5c622",
          "transactionIndex": "0x1a5",
          "logIndex": "0x29b",
          "removed": false
        }
      ],
      "logsBloom": "0x00000000000000000000000000000000000000000000000000000000000000000000000000000000000080000000000000000000000000000000100000200000000000000000000000020000000000000000000000000000000000000000000000000000000000000000000000000000000000000100000000000000200000000000000000000000000000000000000000000000000000000004000000004000020000000000000000000000000000000800000000000000000000000000000000000000000000000000000000000000000000000000000000000000000000000012000000000000000000000000000000000000000000000000000000000000",
      "type": "0x2",
      "transactionHash": "0x3ee9ae96709ff5cbac477449a014fb8d9f4ef05c68afa4864593cec19cb5c622",
      "transactionIndex": "0x1a5",
      "blockHash": "0xcb6d478b31da5a972d70900c1db6f171ffbc8def7f6a6628eeea52157da1b7ed",
      "blockNumber": "0x845c44",
      "gasUsed": "0xb75e",
      "effectiveGasPrice": "0x74d761777",
      "from": "0xb04ba78b7413c3265ffc1293a4659dea54ef0851",
      "to": "0x6ed605a8f7a24da52b367c8a4861b4265403f537",
      "contractAddress": null
    },
    {
      "status": "0x1",
      "cumulativeGasUsed": "0x17384df",
      "logs": [
        {
          "address": "0xae3d8b867152d7a45eb14107ed9c5c11949cda7a",
          "topics": [
            "0x8c5be1e5ebec7d5bd14f71427d1e84f3dd0314c0f7b2291e5b200ac8c7c3b925",
            "0x000000000000000000000000b04ba78b7413c3265ffc1293a4659dea54ef0851",
            "0x000000000000000000000000078084d4e40b8dc7c6c20bf29ec918b77c58d22e"
          ],
          "data": "0x00000000000000000000000000000000000000000000003635c9adc5dea00000",
          "blockHash": "0xcb6d478b31da5a972d70900c1db6f171ffbc8def7f6a6628eeea52157da1b7ed",
          "blockNumber": "0x845c44",
          "blockTimestamp": "0x6864d614",
          "transactionHash": "0x376836ebd9c5c5b4f73e06d617ad8766aee0497fe0b4c9da4b2b49d2a11be5a3",
          "transactionIndex": "0x1a6",
          "logIndex": "0x29c",
          "removed": false
        }
      ],
      "logsBloom": "0x00000000000000000000008000000000000000000000000000000000000200000000000000000000000080000000000000000000010000000000000000200000000000000000000000020000000000000000000000000000000000000000000000000000000000000000000000800000000000000000000000000000000000000000000000000000000000000000000000000000000000000004000000000000020000000000000000000000000000000100000000000000000000008000000000000000000000000000000000000000000000000000000000000000000000000010000000000000000000000000000000000000000000000000000000000000",
      "type": "0x2",
      "transactionHash": "0x376836ebd9c5c5b4f73e06d617ad8766aee0497fe0b4c9da4b2b49d2a11be5a3",
      "transactionIndex": "0x1a6",
      "blockHash": "0xcb6d478b31da5a972d70900c1db6f171ffbc8def7f6a6628eeea52157da1b7ed",
      "blockNumber": "0x845c44",
      "gasUsed": "0xb75e",
      "effectiveGasPrice": "0x74d761777",
      "from": "0xb04ba78b7413c3265ffc1293a4659dea54ef0851",
      "to": "0xae3d8b867152d7a45eb14107ed9c5c11949cda7a",
      "contractAddress": null
    },
    {
      "status": "0x1",
      "cumulativeGasUsed": "0x1743c3d",
      "logs": [
        {
          "address": "0x6ed605a8f7a24da52b367c8a4861b4265403f537",
          "topics": [
            "0x8c5be1e5ebec7d5bd14f71427d1e84f3dd0314c0f7b2291e5b200ac8c7c3b925",
            "0x000000000000000000000000b04ba78b7413c3265ffc1293a4659dea54ef0851",
            "0x000000000000000000000000078084d4e40b8dc7c6c20bf29ec918b77c58d22e"
          ],
          "data": "0x00000000000000000000000000000000000000000000d3c21bcecceda1000000",
          "blockHash": "0xcb6d478b31da5a972d70900c1db6f171ffbc8def7f6a6628eeea52157da1b7ed",
          "blockNumber": "0x845c44",
          "blockTimestamp": "0x6864d614",
          "transactionHash": "0x46dcc9f3064f1698d949275a520220d0410a8c8db691bbfa8af5640ab550283a",
          "transactionIndex": "0x1a7",
          "logIndex": "0x29d",
          "removed": false
        }
      ],
      "logsBloom": "0x00000000000000000000008000000000000000000000000000000000000000000000000000000000000080000000000000000000000000000000000000200000000000000000000000020000000000000000000000000000000000000000000000000000000000000000000000800000000000000100000000000000000000000000000000000000000000000000000000000000000000000004000000000000020000000000000000000000000000000900000000000000000000000000000000000000000000000000000000000000000000000000000000000000000000000012000000000000000000000000000000000000000000000000000000000000",
      "type": "0x2",
      "transactionHash": "0x46dcc9f3064f1698d949275a520220d0410a8c8db691bbfa8af5640ab550283a",
      "transactionIndex": "0x1a7",
      "blockHash": "0xcb6d478b31da5a972d70900c1db6f171ffbc8def7f6a6628eeea52157da1b7ed",
      "blockNumber": "0x845c44",
      "gasUsed": "0xb75e",
      "effectiveGasPrice": "0x74d761777",
      "from": "0xb04ba78b7413c3265ffc1293a4659dea54ef0851",
      "to": "0x6ed605a8f7a24da52b367c8a4861b4265403f537",
      "contractAddress": null
    },
    {
      "status": "0x1",
      "cumulativeGasUsed": "0x175b2fa",
      "logs": [
        {
          "address": "0xae3d8b867152d7a45eb14107ed9c5c11949cda7a",
          "topics": [
            "0xddf252ad1be2c89b69c2b068fc378daa952ba7f163c4a11628f55a4df523b3ef",
            "0x000000000000000000000000b04ba78b7413c3265ffc1293a4659dea54ef0851",
            "0x000000000000000000000000840a7f872d2f585f71bf4859037981ca90fb174f"
          ],
          "data": "0x00000000000000000000000000000000000000000000003635c9adc5dea00000",
          "blockHash": "0xcb6d478b31da5a972d70900c1db6f171ffbc8def7f6a6628eeea52157da1b7ed",
          "blockNumber": "0x845c44",
          "blockTimestamp": "0x6864d614",
          "transactionHash": "0x2b235cb743047e811bd1facaa5ed05cb11b77f710800c32f950a2a76b3c4f20d",
          "transactionIndex": "0x1a8",
          "logIndex": "0x29e",
          "removed": false
        },
        {
          "address": "0x6ed605a8f7a24da52b367c8a4861b4265403f537",
          "topics": [
            "0xddf252ad1be2c89b69c2b068fc378daa952ba7f163c4a11628f55a4df523b3ef",
            "0x000000000000000000000000b04ba78b7413c3265ffc1293a4659dea54ef0851",
            "0x000000000000000000000000840a7f872d2f585f71bf4859037981ca90fb174f"
          ],
          "data": "0x00000000000000000000000000000000000000000000fe1c215e8f838e000000",
          "blockHash": "0xcb6d478b31da5a972d70900c1db6f171ffbc8def7f6a6628eeea52157da1b7ed",
          "blockNumber": "0x845c44",
          "blockTimestamp": "0x6864d614",
          "transactionHash": "0x2b235cb743047e811bd1facaa5ed05cb11b77f710800c32f950a2a76b3c4f20d",
          "transactionIndex": "0x1a8",
          "logIndex": "0x29f",
          "removed": false
        }
      ],
      "logsBloom": "0x00000000000000000000000000000000000000000000000000000000000200000000000000000000000080000000000000000000010000000000100000000000000000000000000000020008000000000000000000000000000000000000000000000000000000000000000000000000000000000100000000000010200000000000000000000000000000000000000000000000000000000004000000004000000000000000000000000000000000000800000000000000000000008000000000000002000000000000000000000000000000000000000000000000000000000002000000000000000000000000000000000000000000000000000000000000",
      "type": "0x2",
      "transactionHash": "0x2b235cb743047e811bd1facaa5ed05cb11b77f710800c32f950a2a76b3c4f20d",
      "transactionIndex": "0x1a8",
      "blockHash": "0xcb6d478b31da5a972d70900c1db6f171ffbc8def7f6a6628eeea52157da1b7ed",
      "blockNumber": "0x845c44",
      "gasUsed": "0x176bd",
      "effectiveGasPrice": "0x74d761777",
      "from": "0xb04ba78b7413c3265ffc1293a4659dea54ef0851",
      "to": "0x840a7f872d2f585f71bf4859037981ca90fb174f",
      "contractAddress": null
    },
    {
      "status": "0x1",
      "cumulativeGasUsed": "0x17729b7",
      "logs": [
        {
          "address": "0xae3d8b867152d7a45eb14107ed9c5c11949cda7a",
          "topics": [
            "0xddf252ad1be2c89b69c2b068fc378daa952ba7f163c4a11628f55a4df523b3ef",
            "0x000000000000000000000000b04ba78b7413c3265ffc1293a4659dea54ef0851",
            "0x000000000000000000000000078084d4e40b8dc7c6c20bf29ec918b77c58d22e"
          ],
          "data": "0x00000000000000000000000000000000000000000000003635c9adc5dea00000",
          "blockHash": "0xcb6d478b31da5a972d70900c1db6f171ffbc8def7f6a6628eeea52157da1b7ed",
          "blockNumber": "0x845c44",
          "blockTimestamp": "0x6864d614",
          "transactionHash": "0x58205873c30169dcb5b544c899dbbf5d752b6ab27b87b083dcdf634f692d73dc",
          "transactionIndex": "0x1a9",
          "logIndex": "0x2a0",
          "removed": false
        },
        {
          "address": "0x6ed605a8f7a24da52b367c8a4861b4265403f537",
          "topics": [
            "0xddf252ad1be2c89b69c2b068fc378daa952ba7f163c4a11628f55a4df523b3ef",
            "0x000000000000000000000000b04ba78b7413c3265ffc1293a4659dea54ef0851",
            "0x000000000000000000000000078084d4e40b8dc7c6c20bf29ec918b77c58d22e"
          ],
          "data": "0x00000000000000000000000000000000000000000000d3c21bcecceda1000000",
          "blockHash": "0xcb6d478b31da5a972d70900c1db6f171ffbc8def7f6a6628eeea52157da1b7ed",
          "blockNumber": "0x845c44",
          "blockTimestamp": "0x6864d614",
          "transactionHash": "0x58205873c30169dcb5b544c899dbbf5d752b6ab27b87b083dcdf634f692d73dc",
          "transactionIndex": "0x1a9",
          "logIndex": "0x2a1",
          "removed": false
        }
      ],
      "logsBloom": "0x00000000000000000000008000000000000000000000000000000000000200000000000000000000000080000000000000000000010000000000000000000000000000000000000000020008000000000000000000000000000000000000000000000000000000000000000000800000000000000100000000000010000000000000000000000000000000000000000000000000000000000004000000000000000000000000000000000000000000000900000000000000000000008000000000000002000000000000000000000000000000000000000000000000000000000002000000000000000000000000000000000000000000000000000000000000",
      "type": "0x2",
      "transactionHash": "0x58205873c30169dcb5b544c899dbbf5d752b6ab27b87b083dcdf634f692d73dc",
      "transactionIndex": "0x1a9",
      "blockHash": "0xcb6d478b31da5a972d70900c1db6f171ffbc8def7f6a6628eeea52157da1b7ed",
      "blockNumber": "0x845c44",
      "gasUsed": "0x176bd",
      "effectiveGasPrice": "0x74d761777",
      "from": "0xb04ba78b7413c3265ffc1293a4659dea54ef0851",
      "to": "0x078084d4e40b8dc7c6c20bf29ec918b77c58d22e",
      "contractAddress": null
    },
    {
      "status": "0x1",
      "cumulativeGasUsed": "0x177b2cd",
      "logs": [
        {
          "address": "0xae3d8b867152d7a45eb14107ed9c5c11949cda7a",
          "topics": [
            "0xddf252ad1be2c89b69c2b068fc378daa952ba7f163c4a11628f55a4df523b3ef",
            "0x000000000000000000000000b04ba78b7413c3265ffc1293a4659dea54ef0851",
            "0x000000000000000000000000840a7f872d2f585f71bf4859037981ca90fb174f"
          ],
          "data": "0x0000000000000000000000000000000000000000000000056bc75e2d63100000",
          "blockHash": "0xcb6d478b31da5a972d70900c1db6f171ffbc8def7f6a6628eeea52157da1b7ed",
          "blockNumber": "0x845c44",
          "blockTimestamp": "0x6864d614",
          "transactionHash": "0x50324d28fb62349f8de254f5a3e691cfee487b1a29546af44d73e3d72c064fd2",
          "transactionIndex": "0x1aa",
          "logIndex": "0x2a2",
          "removed": false
        }
      ],
      "logsBloom": "0x00000000000000000000000000000000000000000000000000000000000200000000000000000000000080000000000000000000010000000000100000000000000000000000000000020008000000000000000000000000000000000000000000000000000000000000000000000000000000000000000000000010200000000000000000000000000000000000000000000000000000000004000000004000000000000000000000000000000000000000000000000000000000008000000000000002000000000000000000000000000000000000000000000000000000000000000000000000000000000000000000000000000000000000000000000000",
      "type": "0x2",
      "transactionHash": "0x50324d28fb62349f8de254f5a3e691cfee487b1a29546af44d73e3d72c064fd2",
      "transactionIndex": "0x1aa",
      "blockHash": "0xcb6d478b31da5a972d70900c1db6f171ffbc8def7f6a6628eeea52157da1b7ed",
      "blockNumber": "0x845c44",
      "gasUsed": "0x8916",
      "effectiveGasPrice": "0x74d761777",
      "from": "0xb04ba78b7413c3265ffc1293a4659dea54ef0851",
      "to": "0xae3d8b867152d7a45eb14107ed9c5c11949cda7a",
      "contractAddress": null
    },
    {
      "status": "0x1",
      "cumulativeGasUsed": "0x1783be3",
      "logs": [
        {
          "address": "0x6ed605a8f7a24da52b367c8a4861b4265403f537",
          "topics": [
            "0xddf252ad1be2c89b69c2b068fc378daa952ba7f163c4a11628f55a4df523b3ef",
            "0x000000000000000000000000b04ba78b7413c3265ffc1293a4659dea54ef0851",
            "0x000000000000000000000000840a7f872d2f585f71bf4859037981ca90fb174f"
          ],
          "data": "0x000000000000000000000000000000000000000000001969368974c05b000000",
          "blockHash": "0xcb6d478b31da5a972d70900c1db6f171ffbc8def7f6a6628eeea52157da1b7ed",
          "blockNumber": "0x845c44",
          "blockTimestamp": "0x6864d614",
          "transactionHash": "0xae6f5c3f6db712debdc74457897bd7b2f02ab921811b031499c9c5be96c7c24a",
          "transactionIndex": "0x1ab",
          "logIndex": "0x2a3",
          "removed": false
        }
      ],
      "logsBloom": "0x00000000000000000000000000000000000000000000000000000000000000000000000000000000000080000000000000000000000000000000100000000000000000000000000000020008000000000000000000000000000000000000000000000000000000000000000000000000000000000100000000000010200000000000000000000000000000000000000000000000000000000004000000004000000000000000000000000000000000000800000000000000000000000000000000000002000000000000000000000000000000000000000000000000000000000002000000000000000000000000000000000000000000000000000000000000",
      "type": "0x2",
      "transactionHash": "0xae6f5c3f6db712debdc74457897bd7b2f02ab921811b031499c9c5be96c7c24a",
      "transactionIndex": "0x1ab",
      "blockHash": "0xcb6d478b31da5a972d70900c1db6f171ffbc8def7f6a6628eeea52157da1b7ed",
      "blockNumber": "0x845c44",
      "gasUsed": "0x8916",
      "effectiveGasPrice": "0x74d761777",
      "from": "0xb04ba78b7413c3265ffc1293a4659dea54ef0851",
      "to": "0x6ed605a8f7a24da52b367c8a4861b4265403f537",
      "contractAddress": null
    },
    {
      "status": "0x1",
      "cumulativeGasUsed": "0x178c4f9",
      "logs": [
        {
          "address": "0xae3d8b867152d7a45eb14107ed9c5c11949cda7a",
          "topics": [
            "0xddf252ad1be2c89b69c2b068fc378daa952ba7f163c4a11628f55a4df523b3ef",
            "0x000000000000000000000000b04ba78b7413c3265ffc1293a4659dea54ef0851",
            "0x000000000000000000000000078084d4e40b8dc7c6c20bf29ec918b77c58d22e"
          ],
          "data": "0x0000000000000000000000000000000000000000000000056bc75e2d63100000",
          "blockHash": "0xcb6d478b31da5a972d70900c1db6f171ffbc8def7f6a6628eeea52157da1b7ed",
          "blockNumber": "0x845c44",
          "blockTimestamp": "0x6864d614",
          "transactionHash": "0x2a7718198818b9f31b505e986611de4241650098bedc99812f0e64e7e57af208",
          "transactionIndex": "0x1ac",
          "logIndex": "0x2a4",
          "removed": false
        }
      ],
      "logsBloom": "0x00000000000000000000008000000000000000000000000000000000000200000000000000000000000080000000000000000000010000000000000000000000000000000000000000020008000000000000000000000000000000000000000000000000000000000000000000800000000000000000000000000010000000000000000000000000000000000000000000000000000000000004000000000000000000000000000000000000000000000100000000000000000000008000000000000002000000000000000000000000000000000000000000000000000000000000000000000000000000000000000000000000000000000000000000000000",
      "type": "0x2",
      "transactionHash": "0x2a7718198818b9f31b505e986611de4241650098bedc99812f0e64e7e57af208",
      "transactionIndex": "0x1ac",
      "blockHash": "0xcb6d478b31da5a972d70900c1db6f171ffbc8def7f6a6628eeea52157da1b7ed",
      "blockNumber": "0x845c44",
      "gasUsed": "0x8916",
      "effectiveGasPrice": "0x74d761777",
      "from": "0xb04ba78b7413c3265ffc1293a4659dea54ef0851",
      "to": "0xae3d8b867152d7a45eb14107ed9c5c11949cda7a",
      "contractAddress": null
    },
    {
      "status": "0x1",
      "cumulativeGasUsed": "0x1794e1b",
      "logs": [
        {
          "address": "0x6ed605a8f7a24da52b367c8a4861b4265403f537",
          "topics": [
            "0xddf252ad1be2c89b69c2b068fc378daa952ba7f163c4a11628f55a4df523b3ef",
            "0x000000000000000000000000b04ba78b7413c3265ffc1293a4659dea54ef0851",
            "0x000000000000000000000000078084d4e40b8dc7c6c20bf29ec918b77c58d22e"
          ],
          "data": "0x00000000000000000000000000000000000000000000152d02c7e14af6800000",
          "blockHash": "0xcb6d478b31da5a972d70900c1db6f171ffbc8def7f6a6628eeea52157da1b7ed",
          "blockNumber": "0x845c44",
          "blockTimestamp": "0x6864d614",
          "transactionHash": "0x7d2c69d5d06268bdabcbdd4b3468d273e49138043be1cd344caa9437eeb07b5f",
          "transactionIndex": "0x1ad",
          "logIndex": "0x2a5",
          "removed": false
        }
      ],
      "logsBloom": "0x00000000000000000000008000000000000000000000000000000000000000000000000000000000000080000000000000000000000000000000000000000000000000000000000000020008000000000000000000000000000000000000000000000000000000000000000000800000000000000100000000000010000000000000000000000000000000000000000000000000000000000004000000000000000000000000000000000000000000000900000000000000000000000000000000000002000000000000000000000000000000000000000000000000000000000002000000000000000000000000000000000000000000000000000000000000",
      "type": "0x2",
      "transactionHash": "0x7d2c69d5d06268bdabcbdd4b3468d273e49138043be1cd344caa9437eeb07b5f",
      "transactionIndex": "0x1ad",
      "blockHash": "0xcb6d478b31da5a972d70900c1db6f171ffbc8def7f6a6628eeea52157da1b7ed",
      "blockNumber": "0x845c44",
      "gasUsed": "0x8922",
      "effectiveGasPrice": "0x74d761777",
      "from": "0xb04ba78b7413c3265ffc1293a4659dea54ef0851",
      "to": "0x6ed605a8f7a24da52b367c8a4861b4265403f537",
      "contractAddress": null
    },
    {
      "status": "0x1",
      "cumulativeGasUsed": "0x179f92a",
      "logs": [],
      "logsBloom": "0x00000000000000000000000000000000000000000000000000000000000000000000000000000000000000000000000000000000000000000000000000000000000000000000000000000000000000000000000000000000000000000000000000000000000000000000000000000000000000000000000000000000000000000000000000000000000000000000000000000000000000000000000000000000000000000000000000000000000000000000000000000000000000000000000000000000000000000000000000000000000000000000000000000000000000000000000000000000000000000000000000000000000000000000000000000000",
      "type": "0x2",
      "transactionHash": "0xfc4b424752c853d9dbee7ca2db295a6ed8db950c7337a43f13032c319acbb0a4",
      "transactionIndex": "0x1ae",
      "blockHash": "0xcb6d478b31da5a972d70900c1db6f171ffbc8def7f6a6628eeea52157da1b7ed",
      "blockNumber": "0x845c44",
      "gasUsed": "0xab0f",
      "effectiveGasPrice": "0x74d761777",
      "from": "0xb04ba78b7413c3265ffc1293a4659dea54ef0851",
      "to": "0x840a7f872d2f585f71bf4859037981ca90fb174f",
      "contractAddress": null
    },
    {
      "status": "0x1",
      "cumulativeGasUsed": "0x17aa439",
      "logs": [],
      "logsBloom": "0x00000000000000000000000000000000000000000000000000000000000000000000000000000000000000000000000000000000000000000000000000000000000000000000000000000000000000000000000000000000000000000000000000000000000000000000000000000000000000000000000000000000000000000000000000000000000000000000000000000000000000000000000000000000000000000000000000000000000000000000000000000000000000000000000000000000000000000000000000000000000000000000000000000000000000000000000000000000000000000000000000000000000000000000000000000000",
      "type": "0x2",
      "transactionHash": "0xfa37a80b4802f1c44878a2445e13614363f816721f26e74a599df93773ad3b91",
      "transactionIndex": "0x1af",
      "blockHash": "0xcb6d478b31da5a972d70900c1db6f171ffbc8def7f6a6628eeea52157da1b7ed",
      "blockNumber": "0x845c44",
      "gasUsed": "0xab0f",
      "effectiveGasPrice": "0x74d761777",
      "from": "0xb04ba78b7413c3265ffc1293a4659dea54ef0851",
      "to": "0x078084d4e40b8dc7c6c20bf29ec918b77c58d22e",
      "contractAddress": null
    }
  ],
  "libraries": [],
  "pending": [],
  "returns": {},
  "timestamp": 1751438869,
  "chain": 11155111,
  "commit": "4e8b04d"
}